:100000000C9493340C94C4340C94C4340C94C434C1
:100010000C94C4340C9446E90C94C4340C94C43449
:100020000C944AEC0C94C4340C94C4340C94C43432
:100030000C94C4340C9425F80C94C4340C94C4343B
:100040000C94C4340C94C2AC0C94C4340C94C434DA
:100050000C94C4340C94C4340D9433220C94CBF916
:100060000C94C4340D94135F0C94C4340C94C434B5
:100070000C94C4340C94C4340C94C4340C94C43420
:100080000C94C4340C94C4340C94C4340C94C43410
:100090000C94C4340C94C4340C94C4340C94C43400
:1000A0000C94C4340C94C4340C94C4340C94C434F0
:1000B0000C94C4340C94C4340C94C4340C94C434E0
:1000C0000C94C4340C94C4340C94C4340C94C434D0
:1000D0000C94C4340C94C4340C94C4340C94C434C0
:1000E0000C94C434A8F6ABF69AF69EF6A4F6E2F6A3
:1000F000AFF6B3F6B9F6BDF6C1F6C7F6CBF6CFF656
:10010000E2F6D5F6D9F6DDF6E7F8ECF8F1F8FBF80B
:1001100005F97EF90FF917F91FF929F933F93DF9B6
:100120004CF956F97EF960F96AF974F9A001C20137
:100130002E0186014A013001380156019A01280139
:10014000660178016C0152018001C401A60194018D
:10015000CE0192015801C0014E0176016A013E01B3
:10016000D00164012A017E015401960148018E01EB
:100170008E018E014201420142017001BA01420129
:100180007A01084AD73B3BCE016E84BCBFFDC12F2C
:100190003D6C74319ABD56833DDA3D00C77F11BE78
:1001A000D9E4BB4C3E916BAAAABE000000803F057B
:1001B000A84CCDB2D44EB93836A9020C50B99186AC
:1001C00088083CA6AAAA2ABE000000803F07634216
:1001D00036B79BD8A71A39685618AEBAAB558C1DDE
:1001E0003CB7CC5763BD6DEDFD753EF6177231BF60
:1001F000000000803F08000000BE922449123EAB80
:10020000AAAA2ABECDCCCC4C3E00000080BEABAA30
:10021000AAAA3E00000000BF000000803F000000CE
:100220000000084178D3BB4387D1133D190E3CC36E
:10023000BD4282AD2B3E68EC8276BED98FE1A93EED
:100240004C80EFFFBE01C4FF7F3F000000000000B4
:100250000D94E7660D945A760D940F1D0D945A6017
:100260000D9490600D94B95A0D9401160D94951744
:100270000D94BB600D9421440D946B840D9498767D
:100280000D949A960D94FB760D9455770D94923FAC
:100290000D94CD760D9477600D945C380D94CA75ED
:1002A0000D9470330D9430670D9492760D94E86040
:1002B0000D94A2750D9488350D94D31C0D941F6078
:1002C0000D94A5530D94B22D0D944A760D94ED66C0
:1002D0000D9491160D9409760D942A670D9491351D
:1002E0000D94DD760D94B2310D94CB500D94DB75E9
:1002F0000D9407670D94E7760D94675C0D947776FF
:100300000D943B670D945B730D9459720D9462606C
:100310000D94BB9B0D94508B0D94685C0D94D57619
:100320000D94363A0D948B750D9484670D94C576B3
:100330000D94472E0D94D2660D94E4740D944B8B5E
:100340000D9451600D94F7160D94A18A0D946A676F
:100350000D94A8AE0D9437550D9414B20D94677298
:100360000D9460720D9466170D94C2520D94147220
:100370000D947A880D940A770D9455320D949A3520
:100380000D94B4750D9455600D9455670D9471726C
:100390000D94A3350D9437310D9428750D94AB67EA
:1003A0000D9423764E414E494E495459494E46CDFF
:1003B000CCCC3D0AD7233C17B7D13877CC2B32951C
:1003C00095E6241FB14F0A000020410000C84200FA
:1003D000401C4620BCBE4CCA1B0E5AAEC59D7400C4
:1003E000407A10F35A00A0724E18090010A5D4E804
:1003F0000000E87648170000E40B54020000CA9A97
:100400003B000000E1F505000080969800000040E8
:10041000420F000000A0860100000010270000002D
:1004200000E803000000006400000000000A000073
:100430000000000100000000002C76D888DC674F27
:100440000823DFC1DFAE59E1B1B796E5E3E453C657
:100450003AE651997696E8E6C28426EB898C9B624F
:10046000ED407C6FFCEFBC9C9F40F2BAA56FA5F4F9
:1004700090055A2AF75C936B6CF9676DC11BFCE021
:10048000E40D47FEF520E6B500D0ED902E03009474
:100490003577050080841E080000204E0A00000009
:1004A000C80C333333330F986E12831141EF8D2113
:1004B00014893BE65516CFFEE6DB18D1844B381B7A
:1004C000F77C1D901DA4BBE424203284725E22813F
:1004D00000C9F124ECA1E53D274578747275646587
:1004E00072005679626572746520657874727564FD
:1004F00065723A0043686F6F736520657874727532
:100500006465723A005A6D656E612075737065732B
:100510006E6121004368616E676520737563636572
:100520007373210043697374656E6920626172762A
:1005300079004C6F6164696E6720636F6C6F720045
:100540004261727661206E656E69206369737461C1
:1005500000436F6C6F72206E6F7420636F727265F0
:1005600063740046696C616D656E74206E657A61B6
:10057000766564656E0046696C616D656E74206EAB
:100580006F74206C6F616465640056796D656E618F
:10059000206F6B3F004368616E67656420636F7214
:1005A000726563746C793F006120737469736B6E5C
:1005B00065746520746C616369746B6F00616E644F
:1005C00020707265737320746865206B6E6F6200B3
:1005D0005072697072617674652066696C616D65D0
:1005E0006E740050726570617265206E657720666A
:1005F000696C616D656E74005072656465687269DE
:1006000076616D20747279736B752E2050726F73E2
:10061000696D2063656B656A74652E00507265684C
:10062000656174696E67206E6F7A7A6C652E2050F2
:100630006C6561736520776169742E0020436F7566
:100640006E7420583A200050726F73696D20616B90
:100650007475616C697A756A74652E00506C656199
:10066000736520757067726164652E005679736CCE
:1006700061206E6F7661207665727A652066697298
:100680006D776172653A004E6577206669726D77A5
:100690006172652076657273696F6E20617661693B
:1006A0006C61626C653A005344207072696E7469C3
:1006B0006E672062797465200043656B616E692006
:1006C0006E61207A63686C61646E7574692050494C
:1006D0004E44410057616974696E6720666F7220ED
:1006E00050494E44412070726F626520636F6F6C99
:1006F000696E6700446574656B6F76616E206E612C
:1007000072617A2E00437261736820646574656358
:100710007465642E0050726F73696D206F74657616
:10072000726574652069646C65722061206D616E0C
:1007300075616C6E65206F64737472616E74652090
:1007400066696C616D656E742E00506C65617365D1
:10075000206F70656E2069646C657220616E642024
:1007600072656D6F76652066696C616D656E74206B
:100770006D616E75616C6C792E0042796C6F2076BC
:100780007973756E7574692066696C616D656E74D8
:10079000752075737065736E653F005761732066D1
:1007A000696C616D656E7420756E6C6F6164207329
:1007B00075636365737366756C3F0050726F736920
:1007C0006D2076796A6D6574652075727963686CE1
:1007D000656E652066696C616D656E7400506C6550
:1007E0006173652070756C6C206F75742066696C20
:1007F000616D656E7420696D6D6564696174656CA9
:10080000790050726F206E61687261746920747231
:1008100079736B79206120706F6B7261636F7661A1
:100820006E6920737469736B6E65746520746C6196
:100830006369746B6F2E005072657373206B6E6FFB
:100840006220746F2070726568656174206E6F7AC3
:100850007A6C6520616E6420636F6E74696E756575
:100860002E0050726F20767973756E7574692066EC
:10087000696C616D656E747520737469736B6E65F8
:1008800074652070726F73696D20746C6163697434
:100890006B6F00506C6561736520707265737320B7
:1008A000746865206B6E6F6220746F20756E6C6F5C
:1008B00061642066696C616D656E74005A204F66D4
:1008C0006673657400556E6B6E6F776E20636F6D27
:1008D0006D616E643A2022004D32303020496E76D0
:1008E000616C696420657874727564657220007A41
:1008F0005F6D61783A20007A5F6D696E3A20007909
:100900005F6D61783A2000795F6D696E3A200078FA
:100910005F6D61783A20006F70656E0054524947F0
:10092000474552454400785F6D696E3A2000526534
:10093000706F7274696E6720656E6473746F702077
:10094000737461747573004F666600456E6420664B
:10095000696C65206C69737400426567696E206616
:10096000696C65206C697374004E6F206D6F7665DD
:100970002E004F626E6F76656E69207469736B75B9
:1009800000526573756D696E67207072696E7400D0
:100990005761697420666F7220757365722E2E2EF2
:1009A000004B616C696272616365205A2073656CEB
:1009B00068616C612E2053656E736F722073657071
:1009C0006E756C207072696C6973207679736F6BC9
:1009D0006F2E2043656B616D206E612072657365BB
:1009E000742E00426564206C6576656C696E6720C4
:1009F0006661696C65642E2053656E736F72207436
:100A0000726967676572656420746F6F20686967D3
:100A1000682E2057616974696E6720666F72207254
:100A2000657365742E004B616C6962726163652049
:100A30005A2073656C68616C612E2053656E736F0C
:100A400072206A65206F64706F6A656E79206E65CA
:100A5000626F20707265727573656E79206B61626A
:100A6000656C2E2043656B616D206E61207265732D
:100A700065742E00426564206C6576656C696E67EE
:100A8000206661696C65642E2053656E736F7220F9
:100A9000646973636F6E6E6563746564206F722042
:100AA0006361626C652062726F6B656E2E205761A8
:100AB0006974696E6720666F722072657365742E43
:100AC00000537461626C6520616D6269656E7420AB
:100AD00074656D70657261747572652032312D3286
:100AE0003643206973206E656564656420612072F9
:100AF00069676964207374616E642069732072652C
:100B00007175697265642E00536C6565702E2E2EAA
:100B100000D904F404E2044175746F0020452F44A9
:100B20003D00416476616E6365204B3D0014050510
:100B30000532052405510540057605630595058AAE
:100B400005BD05A805E305D0051C06F80546696C3A
:100B5000616D656E742073657474696E67733A2095
:100B600044697361626C6564002020204D3230302E
:100B700020440046696C616D656E74207365747401
:100B8000696E67733A002020204D323039205300BF
:100B90004175746F2D526574726163743A20533DD0
:100BA0003020746F2064697361626C652C20312081
:100BB000746F20696E7465727072657420657874E4
:100BC000727564652D6F6E6C79206D6F766573201C
:100BD0006173207265747261637473206F72207226
:100BE00065636F766572696573002046002020207A
:100BF0004D3230382053005265636F7665723A206B
:100C0000533D4578747261206C656E677468202866
:100C10006D6D2920463A537065656420286D6D2FEF
:100C20006D2900205A002046002020204D32303708
:100C3000205300526574726163743A20533D4C65D1
:100C40006E67746820286D6D2920463A537065657B
:100C50006420286D6D2F6D29205A3A205A4C696600
:100C60007420286D6D290020440020490020202098
:100C70004D3330342050005049442068656174621F
:100C800065642073657474696E67733A002044006C
:100C90002049002020204D3330312050005049445D
:100CA0002073657474696E67733A00205A00205986
:100CB0000020204D323036205800486F6D65206F7F
:100CC000666673657420286D6D293A002045002002
:100CD0005A002059002058002042002054002020B3
:100CE0004D323035205300416476616E6365642077
:100CF0007661726961626C65733A20533D4D696E2D
:100D000020666565647261746520286D6D2F732996
:100D10002C20543D4D696E2074726176656C20669E
:100D20006565647261746520286D6D2F73292C20B0
:100D3000423D6D696E696D756D207365676D656E99
:100D4000742074696D6520286D73292C20583D6DC1
:100D50006178696D756D205859206A65726B20281D
:100D60006D6D2F73292C20205A3D6D6178696D754A
:100D70006D205A206A65726B20286D6D2F73292CA7
:100D80002020453D6D6178696D756D2045206A654F
:100D9000726B20286D6D2F73290020540020204D88
:100DA000323034205300416363656C65726174694D
:100DB0006F6E3A20533D616363656C65726174695F
:100DC0006F6E2C20543D7265747261637420616390
:100DD00063656C65726174696F6E00204500205A0E
:100DE0000020590020204D3230312058004D6178CC
:100DF000696D756D20416363656C65726174696FBF
:100E00006E20286D6D2F7332293A00204500205A3C
:100E10000020590020204D3230332058004D617899
:100E2000696D756D206665656472617465732028EF
:100E30006D6D2F73293A00204500205A002059007B
:100E400020204D393220580053746570732070652E
:100E50007220756E69743A0053657474696E6773B5
:100E60002053746F72656400504944204175746F5B
:100E700074756E652066696E6973686564212050BB
:100E8000757420746865206C617374204B702C201D
:100E90004B6920616E64204B6420636F6E737461D4
:100EA0006E74732066726F6D2061626F7665206963
:100EB0006E746F20436F6E66696775726174696FD7
:100EC0006E2E6800504944204175746F74756E65CC
:100ED000206661696C6564212074696D656F757445
:100EE0000020403A00543A00423A00504944204120
:100EF00075746F74756E65206661696C6564212018
:100F000054656D706572617475726520746F6F20C1
:100F10006869676800204B643A2000204B693A20DA
:100F200000204B703A200020436C6173736963208A
:100F300050494420002054753A2000204B753A2037
:100F400000206D61783A2000206D696E3A20002003
:100F5000643A200020626961733A200020453A001B
:100F6000205A3A0020593A003C0620453A00205ABF
:100F70003A0020593A00583A005C064706008706B6
:100F80006C0620573A0020453A00543A002E00449F
:100F9000656C6574696F6E206661696C65642C2090
:100FA00046696C653A200046696C652064656C652D
:100FB0007465643A002E000A002F00A7060A004E4E
:100FC0006F74205344207072696E74696E6700D428
:100FD00006B9066F6B0A0043524153485F524543BE
:100FE0004F5645520047323820582059000507F423
:100FF000062228322900496E76616C6964205420EB
:10100000636F64652E00556E6B6E6F776E204D209A
:10101000636F64653A202573200A006E6F20766145
:101020006C696420636F6D6D616E64002C20002C10
:1010300020002C20006E2F61002C20002C20002C82
:1010400020006E2F61002F00503A00576169742014
:10105000666F722050494E44412074617267657416
:101060002074656D70657261747572653A004D32F9
:10107000323020532569004A0715079B077A07DDA0
:1010800007BB073708020893086208203A200000CF
:10109000BC084C414E472053454C20464F524345D7
:1010A00044002228312900C508D808EF08F708FFB6
:1010B0000807090F0917091C0926092E09303030C5
:1010C00030303030302D303030302D303030302D29
:1010D000303030302D303030303030303030303013
:1010E000300020555549443A0031002045585452AB
:1010F000554445525F434F554E543A0033442050B7
:1011000072696E74657200204D414348494E455FD7
:10111000545950453A00312E3000206261736564A5
:10112000206F6E204D61726C696E204649524D579A
:101130004152455F55524C3A68747470733A2F2F80
:101140006769746875622E636F6D2F707275736155
:1011500033642F50727573612D4669726D776172B9
:10116000652050524F544F434F4C5F5645525349A0
:101170004F4E3A004649524D574152455F4E414D00
:10118000453A50727573612D4669726D776172656B
:1011900020004D3131332053002E0020004709201C
:1011A000423A0020453A00543A0020413A0020508B
:1011B0003A002042403A0020403A00202F003A00F6
:1011C000205400202F0020423A00202F006F6B2077
:1011D000543A002569206D696E2C202569207365BD
:1011E00063004B0959096909810972099009496E1F
:1011F00076616C6964204D20636F64653A202573C5
:10120000200A00556E6B6E6F776E204720636F6407
:10121000653A202573200A004D6573682062656475
:10122000206C6576656C696E67206E6F74206163F3
:10123000746976652E000A002020000A4D656173EE
:101240007572656420706F696E74733A000A5A2073
:10125000736561726368206865696768743A200025
:101260002C004E756D20582C593A2000206D696372
:10127000726F6E730045786365737369766520627B
:101280006564206C6576656C696E6720636F727249
:10129000656374696F6E3A2000E309A109740A2638
:1012A0000A473238205730003A200000205A207375
:1012B0006869667420286D6D293A0050494E444192
:1012C0002074656D70657261747572653A200000F6
:1012D0002F3600537465703A200000205A2073683E
:1012E00069667420286D6D293A0050494E444120AA
:1012F00074656D70657261747572653A20002F3681
:101300002028736B69707065642900537465703AA6
:101310002000005A45524F3A2000007374617274E5
:101320002074656D70657261747572653A20005045
:10133000494E44412070726F62652063616C69623E
:10134000726174696F6E20737461727400C10A47B0
:101350003238205730000A00205A3A200020593AEB
:10136000200020583A2000080B5345545F53544541
:10137000505F45005345545F574156455F45005403
:101380004D435F0043524153485F00334420507245
:10139000696E746572206F6B003344205072696E01
:1013A0007465722072656164792E00446574656BA2
:1013B0006F76616E207679706164656B2070726FF4
:1013C0007564752E4F626E6F766974207469736BE5
:1013D0003F00426C61636B6F7574206F636375725D
:1013E0007265642E205265636F7665722070726933
:1013F0006E743F0050726F206B616C696272616342
:101400006920707265736E65686F207265686F6DB4
:101410006F76616E692062756465206E796E6920F1
:101420007370757374656E2073656C667465737420
:101430002E0053656C66746573742077696C6C203C
:1014400062652072756E20746F2063616C696272D0
:101450006174652061636375726174652073656E84
:10146000736F726C657373207265686F6D696E67F8
:101470002E005469736B61726E61206E6562796CC7
:1014800061206A65737465207A6B616C6962726F42
:1014900076616E612E20506F73747570756A746515
:1014A0002070726F73696D20706F646C65206D6160
:1014B0006E75616C752C206B617069746F6C612046
:1014C0005A6163696E616D652C206F647374617617
:1014D000656320506F73747570206B616C69627204
:1014E0006163652E005072696E7465722068617365
:1014F000206E6F74206265656E2063616C69627234
:1015000061746564207965742E20506C6561736523
:1015100020666F6C6C6F7720746865206D616E75E6
:10152000616C2C2063686170746572204669727307
:10153000742073746570732C2073656374696F6EA7
:101540002043616C6962726174696F6E20666C6FB2
:10155000772E004E65706C61746E6520686F646EE6
:101560006F7479206E6173746176656E692E2042A6
:1015700075646520706F757A69746F207679636819
:101580006F7A69205049442C20457374657073202C
:101590006174642E004F6C642073657474696E67A7
:1015A0007320666F756E642E2044656661756C7479
:1015B000205049442C204573746570732065746312
:1015C0002E2077696C6C206265207365742E00563E
:1015D00061726F76616E693A20646F736C6F206B15
:1015E00065207A6D656E65207479707520746973F5
:1015F0006B61726E792061206D6F74686572626FC5
:10160000617264752E005761726E696E673A20626E
:101610006F7468207072696E746572207479706579
:1016200020616E64206D6F74686572626F617264B0
:101630002074797065206368616E6765642E00565A
:1016400061726F76616E693A20646F736C6F206BA4
:1016500065207A6D656E6520747970752074697384
:101660006B61726E792E005761726E696E673A20F7
:101670007072696E74657220747970652063686138
:101680006E6765642E005661726F76616E693A20EE
:10169000646F736C6F206B65207A6D656E65207466
:1016A000797075206D6F74686572626F61726475B0
:1016B0002E005761726E696E673A206D6F746865AF
:1016C00072626F6172642074797065206368616E04
:1016D0006765642E002020506C616E6E65724275E5
:1016E0006666657242797465733A200020467265B9
:1016F00065204D656D6F72793A2000207C20417520
:1017000074686F723A2000204C61737420557064C5
:10171000617465643A200020536F66747761726566
:1017200020526573657400205761746368646F6745
:10173000205265736574002042726F776E206F755A
:1017400074205265736574002045787465726E610B
:101750006C20526573657400506F77657255700028
:101760006572726F722077726974696E6720746F28
:101770002066696C6500656E6473746F70732068B1
:1017800069743A2000446F6E6520736176696E67F4
:101790002066696C652E006F6B00202D20496E76E7
:1017A000616C6964206578747275646572206E7509
:1017B0006D6265722021001B5B324A1B5B313B313D
:1017C000485072757361204D4B331B5B323B33487D
:1017D0004D756C74694D6174657269616C00466128
:1017E00063746F72792052455345540099138B13DB
:1017F000D213AB133214F413E51472149515531568
:101800000616CF1567163F16B2168616D516EC16B5
:101810004A756E202036203230313800436F6D70AB
:10182000696C65643A2000286E6F6E652C206465D3
:101830006661756C7420636F6E6669672900FB16BC
:101840004A756E20203620323031382031333A311B
:10185000303A333500071717172717371748175827
:101860001720332E352D3537360A007374617274A4
:10187000002055706C6F616420696E2070726F6714
:10188000726573730060175A00205A3A005900209D
:10189000593A00580020583A0076174352415348AD
:1018A0005F444554454354454458590043524153BD
:1018B000485F4445544543544544590043524153BD
:1018C000485F44455445435445445800851797178D
:1018D0004D323900656E717565696E67202200446E
:1018E0006F6E65207072696E74696E672066696CD0
:1018F000650053544F505045442E20005072696E7D
:101900007465722073746F707065642064756520EF
:10191000746F206572726F72732E2046697820741E
:101920006865206572726F7220616E6420757365E0
:10193000204D39393920746F207265737461727467
:101940002E202854656D706572617475726520690A
:10195000732072657365742E20536574206974203A
:1019600061667465722072657374617274696E6702
:1019700029004E6F204C696E65204E756D62657250
:10198000207769746820636865636B73756D2C20BC
:101990004C617374204C696E653A20004E6F204391
:1019A0006865636B73756D2077697468206C696E08
:1019B00065206E756D6265722C204C617374204CCD
:1019C000696E653A2000636865636B73756D206DA1
:1019D00069736D617463682C204C617374204C6969
:1019E0006E653A20004C696E65204E756D626572B9
:1019F000206973206E6F74204C617374204C696E83
:101A000065204E756D6265722B312C204C617374AC
:101A1000204C696E653A20007C3C3E5E2B3D3F2F9A
:101A20005B5D3B2C2A225C0022206661696C656448
:101A30003A204275666665722066756C6C210022DC
:101A400000D418256920686F757273202569206D90
:101A5000696E7574657300DF1854494D454F5554D0
:101A60003A00F218FC1872199C19C619E5194D3183
:101A700031300046756C6C205258204275666665A0
:101A80007200506F757A6520616B7475616C6E6958
:101A90000043757272656E7400506F757A69746573
:101AA00020626568656D207469736B750055736598
:101AB0006420647572696E67207072696E74005676
:101AC000736500416C6C00504944206B616C2E20A2
:101AD000756B6F6E63656E61005049442063616C85
:101AE0002E2066696E697368656400504944206BF6
:101AF000616C2E202020202020202020202000503B
:101B000049442063616C2E202020202020202020AA
:101B10002020004D313137204B616C2E20707276C1
:101B20006E6920767273747679004D3131372046B4
:101B300069727374206C617965722063616C2E0028
:101B40004F626E6F766F76616E69207469736B7524
:101B500000526573756D696E67207072696E7400EE
:101B60005469736B20706F7A6173746176656E006F
:101B70005072696E742070617573656400911A8289
:101B80001AAD1A991AC31ABF1A496E76616C696444
:101B9000205049442063616C2E20726573756C740B
:101BA000732E204E6F742073746F72656420746F8F
:101BB00020454550524F4D2E004D35303000D91A3A
:101BC000C71AFF1AEB1A4731205A313520463135F2
:101BD00030300047393100473120583530205931F5
:101BE000393020453020463730303000473930001A
:101BF0004D373032004D3730322043004D373032D0
:101C00002055004D373032004731205A31352046BB
:101C100031353030004739310047312058353020D8
:101C200059313930204530204637303030004D387A
:101C30003300473930004D3834004D3130342053B3
:101C400030004D3834004731205A3130204631338E
:101C500030302E303030004731205831302059316B
:101C60003830204634303030004D3134302053305D
:101C7000004D313034205330004D3130370047347F
:101C80002053300047312058353020593120452D20
:101C9000332E303030300047312058302059312039
:101CA00045352E3030303000473120463234303028
:101CB0000047312058353020593120452D352E3000
:101CC0003030300047312058302059312045352EF2
:101CD0003030303000473120463234303000473128
:101CE0002058353020593120452D352E30303030B8
:101CF0000047312058302059312045352E303030C2
:101D000030004731204632303030004731205835DE
:101D10003020593120452D352E30303030004731BC
:101D20002058302059312045332E30303030004794
:101D30003120463136303000473120452D31322EAA
:101D40003030303020463230303000473120452DA1
:101D500031352E303030302046333030300047318E
:101D600020452D35302E303030302046353430305F
:101D700000473120452D31352E303030302046356A
:101D8000303030004731205834302045330047315F
:101D9000204635323030004731205831313020452F
:101DA000322E38004731204634363030004731205B
:101DB000583139302045322E3700473120463430F3
:101DC000303000473120583234302045340047311C
:101DD0002058323435205931004731205A302E35C1
:101DE0002046373230302E30303000473120452DFC
:101DF000342046323130302E3030303030004734ED
:101E000020533000473120452D302E3037353030CB
:101E10002046323130302E303030303000473120E3
:101E2000583530205935352045332E363237373343
:101E30000047312058323030205935352045302E7A
:101E40003439333836004731205832303020593752
:101E5000352045332E363237373300473120583559
:101E600030205937352045302E3439333836004745
:101E70003120583530205939352045332E36323708
:101E8000373300473120583230302059393520451A
:101E9000302E343933383600473120583230302034
:101EA000593131352045332E3632373733004731FB
:101EB0002058353020593131352045302E343933D2
:101EC00038360047312058353020593133352045D8
:101ED000332E3632373733004731205832303020F6
:101EE000593133352045302E3636313734004731BD
:101EF000205832303020593135352045322E363297
:101F0000373733004731205831303020593135359B
:101F1000204532004731205837352059313535209A
:101F200045322E35004731204631303830004731B8
:101F3000205836302059313535204534004731207E
:101F4000583530205931353500473120463430304E
:101F500030004D32303420533130303000473120A2
:101F60005A302E3135302046373230302E30303036
:101F700000473120452D342046323130302E30306C
:101F8000303030004D3833004739300047323100AF
:101F90004739322045302E30004731205832343016
:101FA0002E3020453020463430302E30004731204E
:101FB000583232302E302045313320463430302EE6
:101FC00030004731205A302E323030204637323000
:101FD000302E30303000473120583136302E30200E
:101FE0004532302E3020463430302E3000473120FC
:101FF0005835302E30204538302E302046343030A1
:102000002E30004731205A302E32353020463732BC
:1020100030302E303030004D3932204531343000F0
:102020004D32303320453130300047393220453091
:10203000004D3833004739300047323100473238DD
:1020400000473837002A1B131B5430004D313039FC
:102050002053323330004D31393020533730004D6A
:1020600031343020533730004D3130342053323347
:1020700030004D31303700511B401B47393000478D
:1020800031204534004D3832004731204534004D71
:102090003833004D31303620532564004D32323014
:1020A0002053256400701B601B54726964656E695F
:1020B0002020205B5A61646E655D00536F72743A34
:1020C0002020202020205B4E6F6E655D00547269D9
:1020D00064656E69205B416265636564615D0053A0
:1020E0006F72743A20205B416C7068616265745D48
:1020F0000054726964656E6920202020205B436172
:10210000735D00536F72743A2020202020205B54AE
:10211000696D655D005344206361726420205B6ECD
:102120006F726D616C5D0053442063617264205B6B
:10213000466C73684169725D005679626572206A07
:10214000617A796B610053656C656374206C616EB4
:102150006775616765005465706C2E206B616C2E2D
:1021600020205B7A61705D0054656D702E20636184
:102170006C2E2020205B6F6E5D005465706C2E20ED
:102180006B616C2E20205B7679705D0054656D70FC
:102190002E2063616C2E20205B6F66665D00452DEE
:1021A000636F7272656374004B6F6E74722E20766B
:1021B000656E742E5B7679705D0046616E73206388
:1021C0006865636B20205B6F66665D004B6F6E74A5
:1021D000722E2076656E742E5B7A61705D004661AA
:1021E0006E7320636865636B2020205B6F6E5D00FB
:1021F0005679706E6F7574206D6F746F72790044CC
:10220000697361626C6520737465707065727300C8
:10221000506F73756E6F7574206F7375004D6F76A8
:10222000652061786973005465706C6F7461005447
:10223000656D706572617475726500537075737445
:10224000656E692057697A617264612076796D6183
:102250007A6520756C6F7A656E65207679736C652A
:10226000646B79207673656368206B616C69627258
:10227000616369206120737075737469206B616C90
:1022800069627261636E692070726F636573206F3B
:1022900064207A616361746B752E20506F6B72617C
:1022A000636F7661743F0052756E6E696E6720577A
:1022B000697A6172642077696C6C2064656C6574FE
:1022C000652063757272656E742063616C696272F9
:1022D0006174696F6E20726573756C747320616EC2
:1022E000642073746172742066726F6D2074686507
:1022F00020626567696E6E696E672E20436F6E742B
:10230000696E75653F005465706C6F742E206B614B
:102310006C6962726163650054656D702E20636143
:102320006C6962726174696F6E00526573657420C6
:1023300058595A206B616C6962722E005265736540
:10234000742058595A2063616C6962722E0053746C
:102350006176206B6F6E632E207370696E2E005352
:10236000686F7720656E642073746F7073005049D6
:1023700044206B616C69627261636500504944205E
:1023800063616C6962726174696F6E004B6F726534
:102390006B636520706F646C6F7A6B790042656463
:1023A000206C6576656C20636F7272656374004D96
:1023B00065736820426564204C6576656C696E675C
:1023C000004B616C6962726F766174205A004361E0
:1023D0006C696272617465205A004B616C6962724B
:1023E0006163652058595A0043616C696272617477
:1023F000652058595A0053656C66746573742020C3
:1024000020202020202020004B616C2E207072762E
:102410006E692076727374767900466972737420DF
:102420006C617965722063616C2E0057697A617204
:10243000640043657374696E6100456E676C69730F
:1024400068005A61766164656E692066696C616DC9
:10245000656E7475004C6F6164696E672066696CA7
:10246000616D656E7400566C6F7A74652066696C78
:10247000616D656E7420646F206578747275646533
:10248000727520312E20506F7476726474652074DA
:102490006C616369746B656D2E00496E736572744F
:1024A0002066696C616D656E7420696E746F20655D
:1024B0007874727564657220312E20436C69636B89
:1024C000207768656E20646F6E652E00566C6F7A9B
:1024D00074652066696C616D656E7420646F20653B
:1024E000787472756465727520342E20506F74761E
:1024F0007264746520746C616369746B656D2E0021
:10250000496E736572742066696C616D656E7420C6
:10251000696E746F20657874727564657220342EEC
:1025200020436C69636B207768656E20646F6E650D
:102530002E00566C6F7A74652066696C616D656EED
:102540007420646F206578747275646572752033C9
:102550002E20506F74767264746520746C616369A8
:10256000746B656D2E00496E736572742066696CBC
:10257000616D656E7420696E746F20657874727514
:1025800064657220332E20436C69636B2077686525
:102590006E20646F6E652E00566C6F7A74652066CF
:1025A000696C616D656E7420646F206578747275F6
:1025B0006465727520322E20506F74767264746573
:1025C00020746C616369746B656D2E00496E736570
:1025D00072742066696C616D656E7420696E746FCB
:1025E00020657874727564657220322E20436C69A0
:1025F000636B207768656E20646F6E652E004739C7
:10260000390044697361626C65206661726D206D8A
:102610006F64653F004661726D206E756D62657214
:1026200000BB20A920DF20CD200321F1201521446B
:10263000697361626C65206661726D206D6F64659F
:1026400000272146213921682156218C217A219E9B
:1026500021BA21A821DE21CC214D383400FF21F000
:10266000211D2210222F222722A7223B224D343562
:1026700000182306234D3434003C232A235F234EC5
:10268000237C236E239D238C23AF23CE23C123E8F9
:1026900023DA23F6234732382057001A2408242B44
:1026A000243A243224552442249A2466240025CC3A
:1026B0002466253225CC2598255374657072617483
:1026C0006520746F6F20686967683A2000204600B3
:1026D0002045004731205A00B92624F4D43050C395
:1026E0008E20C2A24017828B7011127A910D816CDC
:1026F000D90AA861E108C7586607615143061E4B15
:102700005D05C145A7041A411104093D98037139BB
:1027100031034036DB0265339102D4305402802EFF
:102720001D02632CEE01752AC501B028A0011027F7
:1027300081018F2564012B244B01E0223401AC215F
:102740001F018D200D01801FFC00841EED00971DD0
:10275000DF00B81CD200E61BC600201BBC00641AB8
:10276000B200B219A8000A19A0006A189900D1177E
:10277000910040178B00B516840031167E00B3150A
:1027800079003A157300C7146F0058146A00EE13ED
:1027900066008813630025135E00C7125B006C128D
:1027A000570015125400C111510070114F00211132
:1027B0004B00D61049008D1047004610440002100F
:1027C0004200C00F4000800F3E00420F3C00060F49
:1027D0003B00CB0E3800930E37005C0E3500270E01
:1027E0003400F30D3200C10D3100900D3000600D4A
:1027F0002E00320D2D00050D2C00D90C2B00AE0C37
:102800002900850C29005C0C2700350C27000E0CD4
:102810002600E80B2400C40B2400A00B23007D0B32
:1028200023005A0B2100390B2100180B2000F80A55
:102830001F00D90A1E00BB0A1E009D0A1D00800A47
:102840001D00630A1C00470A1B002C0A1B00110A0A
:102850001A00F7091A00DD091900C4091900AB09AB
:102860001900920917007B091800630917004C0929
:10287000160036091600200916000A091500F50889
:102880001500E0081400CC081400B8081400A408CF
:102890001400900813007D0812006B0813005808FC
:1028A0001200460812003408110023081100120813
:1028B000110001081100F0071000E0071000D00718
:1028C0001000C0071000B0070F00A107100091070B
:1028D0000E0083070F0074070F0065070E005707EF
:1028E0000E0049070E003B070D002E070E002007C3
:1028F0000D0013070D0006070D00F9060C00ED068C
:102900000D00E0060C00D4060C00C8060C00BC0646
:102910000C00B0060C00A4060B0099060C008D06F6
:102920000B0082060B0077060B006C060B0061069D
:102930000A0057060B004C060A0042060A00380639
:102940000A002E060A0024060A001A060A001006CB
:10295000090007060A00FD050900F4050900EB055A
:102960000900E2050900D9050900D0050900C705DD
:102970000900BE050900B5050800AD050800A5055C
:1029800009009C050800940508008C0508008405D2
:1029900008007C050800740508006C050700650543
:1029A00008005D050700560508004E0507004705AD
:1029B00007004005080038050700310507002A0513
:1029C0000700230507001C050600160507000F0574
:1029D00007000805060002050700FB040600F504D1
:1029E0000700EE040600E8040600E2040700DB042A
:1029F0000600D5040600CF040600C9040600C3047F
:102A00000600BD040600B7040600B1040500AC04CE
:102A10000600A6040600A00405009B040600950419
:102A20000500900406008A04050085040500800462
:102A300006007A04050075040500700405006B04A7
:102A4000050066040500610405005C0405005704E8
:102A50000500520405004D04050048040500430428
:102A600005003E0404003A04050035040500300466
:102A700004002C04050027040400230405001E04A0
:102A800004001A04040016040500110404000D04D7
:102A90000400090405000404040000040400FC030D
:102AA0000400F8030400F4030400F0030400EC0342
:102AB0000400E8030400E4030400E0030400DC0372
:102AC0000400D8030400D4030400D0030400CC03A2
:102AD0000400C8030300C503030024F404D9201B29
:102AE000C40C5C0E9804C4095F0265077101F4050B
:102AF000F900FB04B30048048700C10369005803D0
:102B0000550003034500BE023A008402310053021F
:102B10002A002902250004022000E4011C00C8014B
:102B20001900AF011700980114008401130071010E
:102B300010006101100051010E0043010D0036012B
:102B40000B002B010B0020010B00150109000C01EB
:102B5000090003010800FB000800F3000800EB0077
:102B60000700E4000600DE000600D8000600D200E0
:102B70000600CC000500C7000500C2000500BD002E
:102B80000400B9000400B5000400B1000400AD0069
:102B90000400A9000400A5000300A20003009F0098
:102BA00004009B00030098000300950002009300BE
:102BB0000300900003008D0002008B0003008800DA
:102BC00002008600020084000300810002007F00F2
:102BD00002007D0002007B00020079000200770005
:102BE0000100760002007400020072000100710012
:102BF00002006F0002006D0001006C0002006A001C
:102C00000100690002006700010066000100650024
:102C10000100640002006200010061000100600028
:102C200001005F0002005D0001005C0001005B002C
:102C300001005A000100590001005800010057002E
:102C4000010056000100550001005400010053002E
:102C5000000053000100520001005100010050002B
:102C600001004F0001004E0000004E0001004D0029
:102C700001004C0001004B0000004B0001004A0025
:102C80000100490001004800000048000100470021
:102C9000010046000000460001004500000045001C
:102CA0000100440001004300000043000100420015
:102CB000000042000100410000004100010040000E
:102CC00001003F0000003F0001003E0000003E0008
:102CD00001003D0000003D0001003C0000003C0000
:102CE00000003C0001003B0000003B0001003A00F6
:102CF00000003A00010039000000390001003800EE
:102D000000003800000038000100370000003700E4
:102D100001003600000036000000360001003500DA
:102D200000003500000035000100340000003400D0
:102D300000003400010033000000330000003300C5
:102D400001003200000032000000320001003100BA
:102D500000003100000031000100300000003000B0
:102D60000000300001002F0000002F0000002F00A5
:102D700000002F0001002E0000002E0000002E0099
:102D800001002D0000002D0000002D0000002D008E
:102D900001002C0000002C0000002C0000002C0082
:102DA00001002B0000002B0000002B0000002B0076
:102DB00001002A0000002A0000002A0000002A006A
:102DC000010029000000290000002900000029005E
:102DD0000000290001002800000028000000280051
:102DE0000000280000002800010027000000270044
:102DF0000000270000002700000027000100260037
:102E0000000026000000260000002600000026002A
:102E1000010025000000250000002500000025001D
:102E2000000025000000250001002400000024000F
:102E30000000240000002400000024000100230002
:102E400000002300000023000000230000002300F6
:102E500000002300000023000100220000002200E7
:102E600000002200000022000000220000002200DA
:102E700001002100000021000000210000002100CD
:102E800000002100000021000000210001002000BE
:102E900000002000000020000000200000002000B2
:102EA00000002000000020000000200001001F00A2
:102EB00000001F0000001F0000001F0000001F0096
:102EC00000001F0000001F0001001E0000001E0087
:102ED00000001E0000001E0000004572723A2050E3
:102EE00052494E542046414E204552524F520050B6
:102EF00072696E742066616E207370656564206906
:102F000073206C6F776572207468656E20657870C9
:102F10006563746564004572723A20455854522EB8
:102F20002046414E204552524F52004578747275EA
:102F30006465722066616E207370656564206973D4
:102F4000206C6F776572207468656E206578706597
:102F500063746564002F2F20616374696F6E3A702B
:102F600061757365004B616C696272616365205ABB
:102F70002073656C68616C612E2053656E736F728F
:102F8000206E657365706E756C2E205A6E65636970
:102F90007374656E6120747279736B613F20436551
:102FA0006B616D206E612072657365742E004265E1
:102FB00064206C6576656C696E67206661696C6516
:102FC000642E2053656E736F72206469646E742082
:102FD000747269676765722E204465627269732036
:102FE0006F6E206E6F7A7A6C653F205761697469E5
:102FF0006E6720666F722072657365742E00207A8A
:10300000203900206F662039004D6572696D20728D
:1030100065666572656E636E69207679736B75207F
:103020006B616C69627261636E69686F20626F6464
:1030300075004D6561737572696E672072656665AE
:1030400072656E636520686569676874206F6620C5
:1030500063616C6962726174696F6E20706F696E12
:10306000740020746F6F206C6F6E672065787472C7
:103070007573696F6E2070726576656E7465640035
:1030800020636F6C6420657874727573696F6E204D
:1030900070726576656E74656400457872656D65FD
:1030A000207370616E206F6620746865205A2076E8
:1030B000616C7565732100AE2F652F0000404100E3
:1030C0000000400000E442000000400000574300C0
:1030D000000040000057430000C4420000E44200EA
:1030E00000C442000040410000C4420000404100D2
:1030F0000042430000E44200004243000057430006
:103100000042430330FE2F32300930623080304BB2
:10311000616C6962726163652058595A207620702B
:103120006F7261646B752E205A6B6F73656E6920C8
:1031300062756465206175746F6D617469636B7924
:10314000207679726F766E616E6F2070726920746E
:1031500069736B752E0058595A2063616C696272ED
:103160006174696F6E20616C6C2072696768742E7F
:1031700020536B65772077696C6C20626520636FE4
:1031800072726563746564206175746F6D617469D2
:1031900063616C6C792E004B616C6962726163656E
:1031A0002058595A207620706F7261646B752E20FA
:1031B000582F59206F7379206D69726E65207A6B74
:1031C0006F73656E652E20446F627261207072614C
:1031D0006365210058595A2063616C696272617499
:1031E000696F6E20616C6C2072696768742E20585C
:1031F0002F5920617865732061726520736C69674F
:1032000068746C7920736B657765642E20476F6FE7
:1032100064206A6F6221004B616C69627261636550
:103220002058595A207620706F7261646B752E2079
:10323000582F59206F7379206A736F75206B6F6CEC
:103240006D652E2047726174756C756A692100582E
:10325000595A2063616C6962726174696F6E206F84
:103260006B2E20582F59206178657320617265207C
:1032700070657270656E646963756C61722E20434F
:103280006F6E67726174756C6174696F6E73210023
:103290004B616C6962726163652058595A206E6592
:1032A000707265736E612E204C6576792070726540
:1032B000646E6920626F64206D6F63207670726542
:1032C00064752E0058595A2063616C69627261748A
:1032D000696F6E20636F6D70726F6D697365642EB8
:1032E000204C6566742066726F6E742063616C6931
:1032F00062726174696F6E20706F696E74206E6F98
:103300007420726561636861626C652E004B616C4C
:103310006962726163652058595A206E65707265E2
:10332000736E612E20507265646E69206B616C69EA
:10333000627261636E6920626F6479206D6F6320D1
:103340007670726564752E0058595A2063616C69F5
:1033500062726174696F6E20636F6D70726F6D69F8
:103360007365642E2046726F6E742063616C6962AF
:10337000726174696F6E20706F696E7473206E6F06
:103380007420726561636861626C652E004B616CCC
:103390006962726163652058595A2073656C68616F
:1033A0006C612E204C65767920707265646E6920A0
:1033B000626F64206D6F63207670726564752E2075
:1033C00053726F766E656A7465207469736B61728F
:1033D0006E752E0058595A2063616C69627261746F
:1033E000696F6E206661696C65642E204C65667439
:1033F0002066726F6E742063616C696272617469B9
:103400006F6E20706F696E74206E6F7420726561CC
:10341000636861626C652E004B616C696272616306
:10342000652058595A2073656C68616C612E205074
:103430007265646E69206B616C69627261636E694A
:1034400020626F6479206D6F632076707265647599
:103450002E2053726F766E656A7465207469736B83
:1034600061726E752E0058595A2063616C696272E0
:103470006174696F6E206661696C65642E204672A6
:103480006F6E742063616C6962726174696F6E2023
:10349000706F696E7473206E6F74207265616368FB
:1034A00061626C652E004B616C69627261636520BC
:1034B00058595A2073656C68616C612E204E6168A2
:1034C0006C65646E65746520646F206D616E7561F6
:1034D0006C752E0058595A2063616C696272617470
:1034E000696F6E206661696C65642E20506C656141
:1034F000736520636F6E73756C7420746865206DDE
:10350000616E75616C2E004B616C696272616365FE
:103510002058595A2073656C68616C612E204B618C
:103520006C69627261636E6920626F6420706F649F
:103530006C6F7A6B79206E656E616C657A656E2E44
:103540000058595A2063616C6962726174696F6EC8
:10355000206661696C65642E204265642063616C3D
:103560006962726174696F6E20706F696E74207722
:103570006173206E6F7420666F756E642E00556DDA
:103580006973746574652070726F73696D207469F6
:10359000736B6F767920706C6174206E6120686542
:1035A000617462656400506C6561736520706C6164
:1035B000636520737465656C207368656574206F3E
:1035C0006E20686561746265642E004B616C69628F
:1035D00072756A69205A0043616C6962726174692C
:1035E0006E67205A004E656E69207A6B616C696265
:1035F000726F76616E6120767A64616C656E6F734E
:103600007420747279736B79206F64207469736BA2
:103610006F766520706F646C6F7A6B792E20506FB7
:1036200073747570756A74652070726F73696D203C
:10363000706F646C65206D616E75616C752C206BAC
:10364000617069746F6C61205A6163696E616D6548
:103650002C206F64737461766563204E61737461AE
:1036600076656E69207072766E69207672737476F4
:10367000792E0044697374616E63652062657477A6
:1036800065656E20746970206F6620746865206EB1
:103690006F7A7A6C6520616E64207468652062655B
:1036A00064207375726661636520686173206E6F54
:1036B00074206265656E20736574207965742E20B0
:1036C000506C6561736520666F6C6C6F77207468F1
:1036D00065206D616E75616C2C2063686170746526
:1036E000722046697273742073746570732C207332
:1036F000656374696F6E204669727374206C6179BA
:1037000065722063616C6962726174696F6E2E000C
:10371000207A203400206F66203400486C65646194
:103720006D206B616C69627261636E6920626F64A7
:1037300020706F646C6F7A6B790053656172636897
:10374000696E67206265642063616C69627261748E
:10375000696F6E20706F696E7400556D6973746562
:103760007465206C69737420706170697275206E65
:103770006120706F646C6F7A6B7520612075647264
:103780007A756A7465206A656A20706F6420747245
:1037900079736B6F7520626568656D206D65726504
:1037A0006E69207072766E696368203420626F647F
:1037B000752E20506F6B756420747279736B612065
:1037C0007A6163687974692070617069722C2076FF
:1037D00079706E657465207469736B61726E752E95
:1037E00000506C6163652061207368656574206FAB
:1037F0006620706170657220756E646572207468F1
:1038000065206E6F7A7A6C6520647572696E6720C8
:103810007468652063616C6962726174696F6E209F
:103820006F66206669727374203420706F696E74DD
:10383000732E20496620746865206E6F7A7A6C65F5
:1038400020636174636865732074686520706170BB
:1038500065722C20706F776572206F6666207468C1
:1038600065207072696E74657220696D6D6564693A
:103870006174656C792E0050726F2075737065737A
:103880006E6F75206B616C696272616369206F6332
:103890006973746574652070726F73696D207469E3
:1038A000736B6F766F7520747279736B752E205001
:1038B0006F74767264746520746C616369746B658F
:1038C0006D2E00506C6561736520636C65616E20C0
:1038D000746865206E6F7A7A6C6520666F722063FB
:1038E000616C6962726174696F6E2E20436C6963EA
:1038F0006B207768656E20646F6E652E004F647371
:103900007472616E7465207469736B6F7679207060
:103910006C6174207A2068656174626564207072DD
:103920006F73696D2E00506C656173652072656DF3
:103930006F766520737465656C20736865657420A7
:1039400066726F6D20686561746265642E004A65F9
:10395000207469736B6F767920706C6174206E616E
:1039600020686561746265643F0049732073746503
:10397000656C207368656574206F6E20686561747E
:103980006265643F004175746F20686F6D65005615
:10399000310F31D43197314F321732C4329032481F
:1039A000330D33D4338D3366341834D434A63441D4
:1039B000350735A6357E350000F000F801FC03FE22
:1039C00007FE07FE07FE07FC03F801F000000058A1
:1039D000025802584D584DB004F055F055B004202F
:1039E0003C20005741524E494E473A2046726F6E76
:1039F0007420706F696E74206E6F742072656163DD
:103A00006861626C652E205920636F6F7264696E05
:103A10006174653A0000000040410000C0400000B1
:103A20005C430000C04000005C43000046430000CF
:103A3000404100004643497465726174696F6E3A93
:103A4000200000007F43008058439AD95143FFFF74
:103A5000FFD735CB3543616C6962726174696F6EF3
:103A6000206661696C65642120436865636B20741E
:103A70006865206178657320616E642072756E20C0
:103A8000616761696E2E007336E535153710373A78
:103A9000371B37E1375A37C33877382639FD386A4C
:103AA000394E3985394F626E6F766F76616E692057
:103AB0007469736B7520202020005265636F7665F2
:103AC00072696E67207072696E7420202020005A1F
:103AD000206C6976652061646A757374206F7574F3
:103AE000206F662072616E67652E2053657474695D
:103AF0006E6720746F20302E20436C69636B2074D6
:103B00006F20636F6E74696E75652E005A206C6944
:103B100076652061646A757374206F7574206F66B2
:103B20002072616E67652E2053657474696E67201C
:103B3000746F20300020423A0020453A00543A0089
:103B400055564C4F202D20656E64007374707300C1
:103B5000494E54340029002C20002C2000776F722D
:103B60006C6420636F6F7264696E617465733A2070
:103B7000280029002C20002C2000706879736963CC
:103B8000616C20636F6F7264696E617465733A2053
:103B900028007265636F7665725F6D616368696E38
:103BA000655F73746174655F61667465725F706F81
:103BB0007765725F70616E69632C20696E697469E4
:103BC000616C20007265636F7665725F6D6163681A
:103BD000696E655F73746174655F61667465725F59
:103BE000706F7765725F70616E69632C20696E69B2
:103BF0007469616C20004739322045004D32340031
:103C00004D32362053256C75004D3130362053002F
:103C10004D38320047312046256400473120453277
:103C20002A342046343830004731205A00204632AA
:103C30003030300020590047312058004D383300D3
:103C4000506F736974696F6E20726561642066726B
:103C50006F6D20656570726F6D3A004D32332025AF
:103C600073002E67636F0046656564726174653A20
:103C70000063757272656E745F706F736974696FDB
:103C80006E5B455F415849535D3A006375727265DA
:103C90006E745F706F736974696F6E5B5A5F4158C1
:103CA00049535D3A0043757272656E7420706F738C
:103CB0006974696F6E20595F415849533A004375E2
:103CC0007272656E7420706F736974696F6E2058BC
:103CD0005F415849533A00416674657220776169C3
:103CE00074696E6720666F722074656D703A004764
:103CF0003120452D342046343830004731204535B9
:103D00002046313230004D3833004D3139302053A8
:103D10002564004D31303920532564004732382066
:103D2000582059004731205A32352046383030006B
:103D30004D31343020532564004D3130342053252B
:103D40006400BA3AA53A627573793A207061757366
:103D5000656420666F7220696E7075740062757399
:103D6000793A2070617573656420666F722075738F
:103D7000657200627573793A2070726F6365737350
:103D8000696E670000002110422063308440A55016
:103D9000C660E770088129914AA16BB18CC1ADD191
:103DA000CEE1EFF13112100273325222B552944239
:103DB000F772D662399318837BB35AA3BDD39CC3E1
:103DC000FFF3DEE36224433420040114E664C77485
:103DD000A44485546AA54BB528850995EEE5CFF531
:103DE000ACC58DD55336722611163006D776F666D9
:103DF0009556B4465BB77AA719973887DFF7FEE781
:103E00009DD7BCC7C448E5588668A77840086118A4
:103E100002282338CCC9EDD98EE9AFF948896999D0
:103E20000AA92BB9F55AD44AB77A966A711A500A78
:103E3000333A122AFDDBDCCBBFFB9EEB799B588B20
:103E40003BBB1AABA66C877CE44CC55C222C033CC4
:103E5000600C411CAEED8FFDECCDCDDD2AAD0BBD70
:103E6000688D499D977EB66ED55EF44E133E322E18
:103E7000511E700E9FFFBEEFDDDFFCCF1BBF3AAFC0
:103E8000599F788F8891A981CAB1EBA10CD12DC11E
:103E90004EF16FE18010A100C230E32004502540B4
:103EA00046706760B9839893FBA3DAB33DC31CD314
:103EB0007FE35EF3B1029012F322D2323542145204
:103EC00077625672EAB5CBA5A89589856EF54FE560
:103ED0002CD50DC5E234C324A01481046674476454
:103EE00024540544DBA7FAB79987B8975FE77EF7B4
:103EF0001DC73CD7D326F2369106B01657667676A4
:103F0000154634564CD96DC90EF92FE9C899E9897F
:103F10008AB9ABA94458654806782768C018E108F3
:103F20008238A3287DCB5CDB3FEB1EFBF98BD89B53
:103F3000BBAB9ABB754A545A376A167AF10AD01A43
:103F4000B32A923A2EFD0FED6CDD4DCDAABD8BAD9F
:103F5000E89DC98D267C076C645C454CA23C832C93
:103F6000E01CC10C1FEF3EFF5DCF7CDF9BAFBABFF3
:103F7000D98FF89F176E367E554E745E932EB23EE3
:103F8000D10EF01E4368796261202D20446F736C5E
:103F90006F206B2070726570697375207374617423
:103FA00069636B652070616D65746921004572728B
:103FB0006F72202D20737461746963206D656D6F5D
:103FC000727920686173206265656E206F76657214
:103FD0007772697474656E004B61727461207679D2
:103FE0006A6D75746100436172642072656D6F76ED
:103FF0006564004B6172746120766C6F7A656E61E6
:10400000004361726420696E73657274656400AD0B
:104010003F843FE63FD83F0140F33F505255534164
:1040200033444657002079303D25640A002078301B
:104030003D25640A004F4B0A004552524F52206101
:10404000643D25640A002020207A303D25640A0062
:10405000207A303D25640A002079303D25640A002D
:104060002078303D25640A0078797A63616C5F6658
:10407000696E645F706F696E745F63656E7465729C
:10408000320A0000002100240027002A002D003001
:1040900000330001010000040107010A01000020B3
:1040A000002300260029002C002F00320000010010
:1040B0000003010601090100000A0B02090C0D0EA4
:1040C00008070304010000000000000000000000D9
:1040D00000000000000000000000000000000000E0
:1040E000000000121110000000000000000000009D
:1040F00000000000000000000000000000000000C0
:1041000000000000000000000000000000332E3519
:10411000007263006265746100616C7068610064C4
:1041200065760022206661696C65643A2042756696
:104130006665722066756C6C2100456E71756569E7
:104140006E6720746F207468652066726F6E743AB3
:104150002022004572726F723A002200456E71751E
:1041600065696E6720746F207468652066726F6E73
:10417000743A20220001021020200808102040106C
:10418000204080020102010804020101020408101B
:104190002040808040201008040201800402018039
:1041A0004020100804020108040201010204081062
:1041B000204080010204081020408010080408807C
:1041C0001020400440801020400480000022002580
:1041D0000028002B002E00310034000201000005F1
:1041E0000108010B01050505050705080808080277
:1041F0000202020A0A080804040404010101010180
:104200000101010303030303030303040707070C6E
:104210000C0C0C0C0C0C0C02020202060606060624
:104220000606060B0B0B0B0B0B0B0B07070A0A0AF8
:104230000A0A0A050505040404080802746D6332BD
:104240003133305F676F746F5F73746570202564FE
:10425000202564202564202564200A0020666163EF
:10426000746F723A2025730A00746D6332313330F3
:104270005F7365745F7761766520256868642025C3
:104280006868640A004D3234004D323320257300D3
:104290006175746F25692E67005469736B2E2076E3
:1042A000656E743A005072696E742046414E3A2031
:1042B00000547279736B2E2076656E743A004E6FDF
:1042C0007A7A6C652046414E3A005A63686C6164A4
:1042D000697400436F6F6C646F776E004E61706538
:1042E000746900566F6C7461676573005465706C17
:1042F0006F74790054656D70657261747572657361
:1043000000537461762072656D656E750042656C50
:104310007420737461747573004578747275646584
:104320007220696E666F0044657461696C7920580B
:10433000595A206B616C2E0058595A2063616C2EBB
:104340002064657461696C7300446174756D3A0032
:10435000446174653A00686F77746F2E707275737C
:104360006133642E637A00686F77746F2E70727594
:10437000736133642E636F6D00666F72756D2E709E
:104380007275736133642E637A00666F72756D2E79
:10439000707275736133642E636F6D007072757324
:1043A0006133642E637A00707275736133642E63B7
:1043B0006F6D00A5429942BE42B1421B5B303B305B
:1043C000484C617374207072696E74206661696C08
:1043D000757265731B5B313B314846696C616D2EAC
:1043E0002072756E6F7574732020252D33641B5BEE
:1043F000323B3048546F74616C206661696C757231
:1044000065731B5B333B314846696C616D2E2072CE
:10441000756E6F7574732020252D3364001B5B321D
:104420003B3148416D6269656E743A2020256425F0
:10443000631B5B333B314850494E44413A202020B6
:104440002025642563001B5B303B31484E6F7A7A30
:104450006C653A202020256425631B5B313B314885
:104460004265643A20202020202025642563001B1B
:104470005B313B31485057523A20202020202025E4
:10448000642E2530316456001B5B303B3148426559
:104490006C74207374617475731B5B313B324858C4
:1044A0002025641B5B323B32485920256400464C72
:1044B0004558202D20203234302F353000505020E8
:1044C00020202D20203235342F3130300048495003
:1044D00053202D20203232302F31303000414253D2
:1044E00020202D20203235352F31303000504554DA
:1044F00020202D20203233302F383500504C4120E1
:10450000202D20203233302F3730004142532020DD
:1045100020202D20203235352F31303000D342CAB3
:10452000426E6F7A7A6C65202D20203235302F3024
:10453000006661726D2020202D20203235302F360C
:104540003000E342DC42F442EC420D4301431943A4
:10455000384327432D2D2D2D2D2D2D2D2D2D2D2D5A
:1045600000466C617368416972204950204164645F
:10457000723A002D2D2D2D2D2D2D2D2D2D2D2D0073
:104580004A756E202036203230313800504349437E
:104590002D2D2D2D2D2D2D2D2D2D2D2D0045334443
:1045A00076360045494E53595F52414D424F0031D6
:1045B0002E37356D6D002D2D2D2D2D2D2D2D2D2DC5
:1045C0002D2D00674356438A437943A7439C4320DC
:1045D000332E352D353736004669726D7761726539
:1045E0003A0025642E25642E25642E2564001000D3
:1045F000C90210012C014001220170011801B00113
:104600000E01F00104015002FA00B002F000300384
:10461000E600D003DC009004D2007005C800A006BC
:10462000BE000008B400B009AA00D00BA000600EC4
:10463000960060118C000015820020197800C01DC2
:104640006E00A0226400B0275A00902C5000003168
:104650004600E0343C0010383200903A2800603CBC
:104660001E00A03D1400803E0A00203F00007001A3
:104670002C0190012701B0012201C0011D01F001B0
:1046800018011002130130020E01600209019002AC
:104690000401C002FF000003FA004003F50080039C
:1046A000F000D003EB002004E6007004E100E00419
:1046B000DC004005D700C005D2004006CD00D00682
:1046C000C8008007C3003008BE00F008B900C00968
:1046D000B400B00AAF00B00BAA00D00CA500000EC9
:1046E000A000500F9B00C0109600501291000014C3
:1046F0008C00C0158700B0178200B0197D00D01B58
:104700007800001E730040206E0090226900F024A3
:10471000640040275F0090295A00E02B5500102EBE
:10472000500020304B0010324600E03341009035FD
:104730003C001037370070383200A0392D00B03AF5
:104740002800A03B2300603C1E00103D1900903D56
:104750001400103E0F00703E0A00C03E0500003FEE
:10476000000090137D00B0157800F0177300601AF8
:104770006E00F01C6900A01F640050225F0020251D
:104780005A00E0275500902A5000202D4B00A02F02
:104790004600F031410010343C00F0353700A037BE
:1047A000320020392D00603A2800703B2300603C25
:1047B0001E00203D1900C03D1400403E0F00A03EE9
:1047C0000A00F03E0500403F0000703FFBFF903FB5
:1047D000F6FFB03FF1FFC03FECFFD03FE7FFE03F07
:1047E000E2FFF03FDDFFF03FD8FF20484F54454E39
:1047F0004420544845524D414C2052554E4157415A
:104800005900204845415442454420544845524DA2
:10481000414C2052554E4157415900544845524D44
:10482000414C2052554E4157415900424544205475
:104830004845524D414C2052554E41574159002058
:10484000544845524D414C2052554E4157415920F4
:1048500028205052454845415420484F54454E4425
:10486000290020544845524D414C2052554E415745
:10487000415920282050524548454154204845413F
:104880005442454429005052454845415420455220
:10489000524F520042454420505245484541542011
:1048A0004552524F52004572723A204D415854457C
:1048B0004D50003A204578747275646572207377A4
:1048C000697463686564206F66662E204D41585494
:1048D000454D5020747269676765726564202100D8
:1048E0004572723A204D415854454D50204245443E
:1048F0000054656D706572617475726520686561DC
:1049000074656420626564207377697463686564A4
:10491000206F66662E204D415854454D50207472CC
:10492000696767657265642021004572723A204D9F
:10493000494E54454D50204245440054656D7065C4
:104940007261747572652068656174656420626562
:1049500064207377697463686564206F66662E20CF
:104960004D494E54454D50207472696767657265B4
:10497000642021004572723A204D494E54454D50F5
:10498000003A204578747275646572207377697493
:1049900063686564206F66662E204D494E54454D10
:1049A00050207472696767657265642021004365F1
:1049B0006C6B6F767920636173203A00546F746179
:1049C0006C207072696E742074696D65203A0046BF
:1049D000696C616D656E742063656C6B656D203A02
:1049E00000546F74616C2066696C616D656E742033
:1049F0003A00436173207469736B75203A2020007C
:104A00005072696E742074696D653A2020004669A1
:104A10006C616D656E74203A20200046696C616D92
:104A2000656E7420757365643A202000507261765B
:104A3000793A0052696768743A004C6576793A00B1
:104A40004C6566743A005920767A64616C656E6FC5
:104A50007374206F64206D696E3A00592064697325
:104A600074616E63652066726F6D206D696E3A00C9
:104A700054657A6B65207A6B6F73656E693A005383
:104A8000657665726520736B65773A004C65686B77
:104A900065207A6B6F73656E693A00536C6967685D
:104AA0007420736B65773A004D6572656E65207A88
:104AB0006B6F73656E693A004D65617375726564FD
:104AC00020736B65773A005B303B305D20706F6917
:104AD0006E74206F66667365740041646A757374E2
:104AE000696E67205A00526573657400567A616476
:104AF0007520205B756D5D0052656172207369647D
:104B000065205B756D5D00567072656475205B7520
:104B10006D5D0046726F6E7420736964655B756DC0
:104B20005D0056707261766F205B756D5D00526935
:104B300067687420736964655B756D5D00566C65AC
:104B4000766F20205B756D5D004C6566742073691F
:104B50006465205B756D5D004E617374617674658C
:104B6000207465706C6F74753A00536574207465B9
:104B70006D70657261747572653A00BC49AE49E149
:104B800049CF49004AF2491B4A0E4A45787472756A
:104B9000646572004E2F41006D6D0000334A2C4A4F
:104BA000404A3A4A5B4A464A007F4A704A009B4A5A
:104BB0008C4A4E2F4100B84AA84A6D6D000059003A
:104BC0005800C74A580059005A00DA4AE64AF84ADB
:104BD000EC4A134B074B2E4B224B494B3D4B6A4B38
:104BE000584B506F64706F726100537570706F72C4
:104BF000740053746174697374696B61202000538D
:104C00007461746973746963732020004B616C690B
:104C100062726163650043616C6962726174696F9D
:104C20006E005A6D656E697420657874727564657E
:104C300072004368616E676520657874727564659B
:104C4000720056796A6D6F75742066696C616D6566
:104C50006E7400556E6C6F61642066696C616D6581
:104C60006E74005A61766573742066696C616D6557
:104C70006E74004C6F61642066696C616D656E7462
:104C8000005A61646E61205344206B61727461004C
:104C90004E6F205344206361726400506F6B7261E9
:104CA000636F76617400526573756D65207072690B
:104CB0006E7400506F7A61737461766974207469E0
:104CC000736B005061757365207072696E7400506B
:104CD00072656465687265760050726568656174B6
:104CE000004C616469740054756E6500446F6C61BA
:104CF00064656E69206F7379205A004C697665206F
:104D000061646A757374205A00496E666F726D61D2
:104D1000636500496E666F2073637265656E00445B
:104D20006F6B6F6E636F76616E6920706F6879620A
:104D3000750046696E697368696E67206D6F766588
:104D40006D656E7473004372617368206465742EC0
:104D500020205B4E2F415D004372617368206465C3
:104D6000742E20205B7A61705D004372617368204D
:104D70006465742E2020205B6F6E5D00437261734A
:104D800068206465742E20205B7679705D00437224
:104D9000617368206465742E20205B6F66665D0019
:104DA0004D6F6420202020205B537465616C746813
:104DB0005D004D6F6465202020205B537465616C3D
:104DC00074685D004D6F642020202020205B4E6FB2
:104DD000726D616C5D004D6F646520202020205B4A
:104DE0004E6F726D616C5D0056796D656E697420F1
:104DF00066696C616D656E74004368616E676520FD
:104E000066696C616D656E7400507275746F6B00CD
:104E1000466C6F7700527963686C6F7374005370DF
:104E20006565640043686F6F736520636F6C6F72B4
:104E30003A00EA4BE24B4661696C2073746174730B
:104E400000FF4BF24B164C0C4C324C224C534C4254
:104E50004C734C634C4661726D206E756D62657269
:104E600000904C814CA64C9B4CC34CB34CD94CCFBE
:104E70004CE74CE14CFB4CEC4C134D094D324D1FB3
:104E80004D4D36303000464D6A4D584D8E4D7C4D5F
:104E9000B24DA04DD64DC44DF94DE84D104E094EC2
:104EA0001E4E154E4E6168726976616E69205049DA
:104EB0004E44410050494E44412048656174696E3A
:104EC00067005465706C2E206B616C2E20202020B2
:104ED0002020202020200054656D702E2063616CFE
:104EE0002E20202020202020202020004B616C69D3
:104EF0006272616365204F4B0043616C696272614D
:104F000074696F6E20646F6E65004B616C696272CC
:104F1000756A69205A0043616C6962726174696ED6
:104F200067205A00426564204F4B2E004265642082
:104F3000646F6E65005A6168726976616E6920629D
:104F40006564004265642048656174696E67005A53
:104F50006168726976616E69204F4B2E0048656109
:104F600074696E6720646F6E652E005A616872699D
:104F700076616E690048656174696E67003A200069
:104F8000B44EA44ED74EC24EF94EEC4E20202020F7
:104F90002020202020202020202020202020200031
:104FA000203A2000164F0A4F2020202020202020C9
:104FB000202020202020202020202020002C4F24D2
:104FC0004F434F354F5D4F4F4F754F6B4F20202054
:104FD00020202020202020202020002573002020B9
:104FE000002D2D3A2D2D00200020540020004C00D3
:104FF0002020002046002D2D2D003E555342005309
:1050000044002D2D002520202020200020200020DD
:1050100020000120002020202D2D2D200020205AAE
:10502000002020000120005465706C6F746E6920B0
:105030006B616C6962726163652073656C68616C39
:10504000610054656D70657261747572652063618D
:105050006C6962726174696F6E206661696C656407
:10506000005465706C6F746E69206B616C6962725C
:1050700061636520646F6B6F6E63656E6120612094
:105080006A65206E796E6920616B7469766E692E2F
:10509000205465706C6F746E69206B616C6962720C
:1050A000616369206A65206D6F7A6E6F2064656147
:1050B0006B7469766F7661742076206D656E7520ED
:1050C0004E6173746176656E692D3E5465706C2E09
:1050D000206B616C2E0054656D7065726174757221
:1050E000652063616C6962726174696F6E206973B7
:1050F0002066696E697368656420616E642061630F
:10510000746976652E2054656D702E2063616C691C
:1051100062726174696F6E2063616E2062652064E3
:10512000697361626C656420696E206D656E7520BF
:1051300053657474696E67732D3E54656D702E20CF
:1051400063616C2E0020003E003E0020003E003EC9
:10515000004250275054656D7065726174757265B8
:105160002063616C6962726174696F6E2066616947
:105170006C65642E20436F6E74696E756520776967
:105180007468207072657373696E67207468652037
:105190006B6E6F622E00D650615054656D706572F3
:1051A00061747572652063616C6962726174696FA4
:1051B0006E20646F6E652E20436F6E74696E756528
:1051C0002077697468207072657373696E672074E4
:1051D0006865206B6E6F622E005A30005A3100599C
:1051E0003000593100583000583100456E6420734A
:1051F000746F707320646961670050726F73696DBA
:105200002063656B656A746500506C656173652029
:1052100077616974005679736F7576616D20666980
:105220006C616D656E7400556E6C6F6164696E675C
:105230002066696C616D656E7400507265646568A6
:1052400072656A746520747279736B75210050728F
:10525000656865617420746865206E6F7A7A6C6524
:10526000210043485942413A004552524F523A00B8
:105270005A61766573742066696C616D656E742021
:1052800034004C6F61642066696C616D656E7420DA
:1052900034005A61766573742066696C616D656E61
:1052A000742033004C6F61642066696C616D656EBB
:1052B000742033005A61766573742066696C616D81
:1052C000656E742032004C6F61642066696C616D9C
:1052D000656E742032005A61766573742066696C5D
:1052E000616D656E742031004C6F61642066696C7D
:1052F000616D656E742031005A6176657374207635
:105300007365004C6F616420616C6C0056796A6D46
:105310006F75742066696C616D2E203400556E6C5B
:105320006F61642066696C616D656E74203400562F
:10533000796A6D6F75742066696C616D2E2033001B
:10534000556E6C6F61642066696C616D656E74206A
:10535000330056796A6D6F75742066696C616D2EC5
:10536000203200556E6C6F61642066696C616D65FA
:105370006E7420320056796A6D6F75742066696CA0
:10538000616D2E203100556E6C6F61642066696C12
:10539000616D656E7420310056796A6D6F75742089
:1053A00076736500556E6C6F616420616C6C0045AE
:1053B000787472756465722034004578747275640F
:1053C000657220330045787472756465722032000E
:1053D00045787472756465722031000952FA51275C
:1053E000521552004E523A526952625282527052D3
:1053F000A4529252C652B452E852D6520353F852B3
:105400001D530C5340532F536353525386537553BC
:10541000A4539853AF53BA53C553D0534545505234
:105420004F4D204572726F720048617264636F6401
:1054300065642044656661756C7420536574746995
:105440006E6773204C6F616465640053656E7A6F9C
:10545000722066696C616D656E74750046696C6179
:105460006D656E742073656E736F720050726F6835
:105470006F7A656E65005377617070656400507275
:1054800065646E692F6C6576792076656E742E0082
:1054900046726F6E742F6C6566742066616E730061
:1054A0004F736100417869730044656C6B61206FD4
:1054B00073790041786973206C656E677468005574
:1054C000766F6C6E656E612072656D656E69636B7B
:1054D00061004C6F6F73652070756C6C6579004569
:1054E0006E6473746F70206E6F7420686974004509
:1054F0006E6473746F70004D6F746F7200456E64EC
:1055000073746F7073004368796261207A61706FA1
:105510006A656E6900576972696E67206572726F9D
:105520007200426564202F20486561746572004EE8
:10553000657A61706F6A656E6F20202020004E6F63
:105540007420636F6E6E6563746564004865617492
:1055500065722F546865726D6973746F72005A6B4F
:105560006F6E74726F6C756A7465203A00506C656A
:1055700061736520636865636B203A0053656C66F0
:1055800074657374206572726F7220210053656EAA
:105590007A6F722066696C616D656E74753A00464B
:1055A000696C616D656E742073656E736F723A001D
:1055B0005469736B6F76792076656E742E3A00505D
:1055C00072696E742066616E3A004C657679207659
:1055D000656E742E3A004578747275646572206643
:1055E000616E3A0053656C66746573742073656C04
:1055F00068616C20200053656C6674657374206666
:1056000061696C6564202000567365204F4B202033
:1056100020202020202020202000416C6C20636F5F
:105620007272656374202020202020004B6F6E74FE
:10563000726F6C612073656E7A6F72750043686576
:10564000636B696E672073656E736F727320004BB6
:105650006F6E74726F6C6120626564202020202060
:1056600000436865636B696E672062656420202073
:105670002020004B6F6E74726F6C61205A2061782D
:105680006973202000436865636B696E67205A2048
:10569000617869732020004B6F6E74726F6C6120AB
:1056A000592061786973202000436865636B696ED7
:1056B00067205920617869732020004B6F6E7472E7
:1056C0006F6C612058206178697320200043686501
:1056D000636B696E67205820617869732020004BE6
:1056E0006F6E74726F6C6120686F74656E642020D9
:1056F00000436865636B696E6720686F74656E64EC
:105700002020004B6F6E74726F6C6120656E647345
:10571000746F707300436865636B696E6720656EB4
:105720006473746F70730041786973206C656E6781
:10573000746820646966666572656E63653A004DDB
:10574000656173757265642061786973206C656E3C
:105750006774683A00256320415849532053473104
:105760003D25640A005C544B5476546C5490547E2E
:1057700054A454A054B354A954D254BF54DF54EF8A
:1057800054F754FD541555065522553E552F554C8A
:10579000556D555E557C559F558D55BF55B055D6A9
:1057A00055CA552D2D2D2D2D2D2D2D2D2D2D2D2D3C
:1057B0002D2D2D2D2D2D2D0043616C69627261748C
:1057C000696E6720686F6D6500F655E4551A5608D6
:1057D000563D562C5661564F5685567356A95697C8
:1057E00056CD56BB56F156DF5615570357746D63A9
:1057F000323133305F686F6D655F656E7465722836
:10580000617865735F6D61736B3D307825303278F8
:10581000290A00746D63323133305F686F6D655FE4
:105820006578697420746D63323133305F73675FFC
:10583000686F6D696E675F617865735F6D61736BCB
:105840003D3078253032780A00544D432044524987
:10585000564552204F56455254454D5020007265D2
:1058600073756C742076616C75653A2025640A0046
:1058700020693D25326420636E743D2532642076B4
:10588000616C3D2532640A00636C757374657273D4
:105890003A0A0020693D25326420737465703D2505
:1058A00032640A00736F727465642073616D706C8A
:1058B00065733A0A00457874727564657200506FBA
:1058C00073756E6F7574205A004D6F7665205A009F
:1058D000506F73756E6F75742059004D6F7665202B
:1058E0005900506F73756E6F75742058004D6F7648
:1058F000652058001B5B324A4372617368206465FF
:1059000074656B6365206D757A651B5B313B304850
:10591000627974207A61706E75746120706F757A27
:105920006520761B5B323B30484E6F726D616C2098
:105930006D6F6475001B5B324A437261736820644B
:105940006574656374696F6E2063616E1B5B313BC8
:1059500030486265207475726E6564206F6E206FCA
:105960006E6C7920696E1B5B323B30484E6F726DF6
:10597000616C206D6F6465001B5B324A504F5A4F5B
:10598000523A1B5B313B3048437261736820646557
:1059900074656B63651B5B323B30486465616B7497
:1059A00069766F76616E612076651B5B333B3048AC
:1059B000537465616C7468206D6F6475001B5B3295
:1059C0004A5741524E494E473A1B5B313B304843A0
:1059D0007261736820646574656374696F6E1B5BC4
:1059E000323B304864697361626C656420696E1B88
:1059F0005B333B3048537465616C7468206D6F6431
:105A000065005A6B616C6962726F76617400436104
:105A10006C696272617465004E656A64726976656C
:105A2000207A61766564746520504C412066696C0B
:105A3000616D656E742070726F73696D2E00506CAD
:105A400065617365206C6F616420504C412066690C
:105A50006C616D656E742066697273742E004A65A0
:105A600020504C412066696C616D656E74207A61CE
:105A7000766564656E3F00497320504C412066692D
:105A80006C616D656E74206C6F616465643F00507D
:105A9000726F73696D207A61766564746520504C0D
:105AA000412066696C616D656E74206120706F20A5
:105AB0007465206F626E6F7674652057697A6172C3
:105AC000646120737469736B6E7574696D2072659F
:105AD00073657420746C616369746B612E00506C23
