:100000000C9494340C94C5340C94C5340C94C534BD
:100010000C94C5340C94DB700C94C5340C94C5342A
:100020000C9460700C94C5340C94C5340C94C53495
:100030000C94C5340D9430CA0C94C5340C94C5345A
:100040000C94C5340D94710B0C94C5340C94C534C8
:100050000C94C5340C94C5340D94232A0C946E373B
:100060000C94C5340C94D1450C94C5340C94C5340F
:100070000C94C5340C94C5340C94C5340C94C5341C
:100080000C94C5340C94C5340C94C5340C94C5340C
:100090000C94C5340C94C5340C94C5340C94C534FC
:1000A0000C94C5340C94C5340C94C5340C94C534EC
:1000B0000C94C5340C94C5340C94C5340C94C534DC
:1000C0000C94C5340C94C5340C94C5340C94C534CC
:1000D0000C94C5340C94C5340C94C5340C94C534BC
:1000E0000C94C534E234E534D434D834DE341C35D1
:1000F000E934ED34F334F734FB3401350535093593
:100100001C350F35133517351D3622362736313657
:100110003B36B43645364D3655365F36693673361E
:1001200082368C36B4369636A036AA36CD44D144C3
:10013000D644DE44F3440C45334560456E019001DE
:100140007A01760154014A015A019E014201A0013F
:100150004601B4012A01B001860134017201800117
:100160003C019401320178018A014C019A01740129
:10017000740174012801280128014801AA012801FD
:10018000A401084AD73B3BCE016E84BCBFFDC12F02
:100190003D6C74319ABD56833DDA3D00C77F11BE78
:1001A000D9E4BB4C3E916BAAAABE000000803F057B
:1001B000A84CCDB2D44EB93836A9020C50B99186AC
:1001C00088083CA6AAAA2ABE000000803F07634216
:1001D00036B79BD8A71A39685618AEBAAB558C1DDE
:1001E0003CB7CC5763BD6DEDFD753EF6177231BF60
:1001F000000000803F08000000BE922449123EAB80
:10020000AAAA2ABECDCCCC4C3E00000080BEABAA30
:10021000AAAA3E00000000BF000000803F000000CE
:100220000000084178D3BB4387D1133D190E3CC36E
:10023000BD4282AD2B3E68EC8276BED98FE1A93EED
:100240004C80EFFFBE01C4FF7F3F000000000000B4
:100250000D94C67E0D946A7D0D9420760D94B5693B
:100260000D94AC3B0D94257E0D94A87D0D941E67D6
:100270000D9419440D94F0AB0D94F17D0D94C2C40E
:100280000D9478510D94EE700D94108C0D9437717F
:100290000D94A87E0D94AD700D94907E0D94C8675A
:1002A0000D94B93C0D94B9760D94A6700D94726CB2
:1002B0000D94AB660D94B9700D94DD690D941DBC61
:1002C0000D94A8BB0D94654A0D9466630D94A4BB70
:1002D0000D94C19D0D947B490D94AA3C0D944070E2
:1002E0000D944B520D94D77D0D94A07E0D947D708E
:1002F0000D94427E0D945F700D9485770D94A266E7
:100300000D94647E0D94B53D0D949EBB0D94967D29
:100310000D94FCAD0D945E7E0D94B33C0D942F3A7C
:100320000D9458700D9479520D94157E0D942B4EAA
:100330000D9499660D94987E0D943EB30D94D670ED
:100340000D940B710D9457A30D94B27E0D94FE6421
:100350000D94B4660D94D57E0D9499930D94E99502
:100360000D947E7D0D94A6950D94527D0D940C5C9C
:100370000D94DD380D94775A0D94F6680D948F57CF
:100380000D94E6510D94B9940D9466A64E414E49D4
:100390004E495459494E46CDCCCC3D0AD7233C1743
:1003A000B7D13877CC2B329595E6241FB14F0A0090
:1003B0000020410000C84200401C4620BCBE4CCA80
:1003C0001B0E5AAEC59D7400407A10F35A00A072FD
:1003D0004E18090010A5D4E80000E8764817000080
:1003E000E40B54020000CA9A3B000000E1F505004E
:1003F0000080969800000040420F000000A0860197
:10040000000000102700000000E803000000006466
:1004100000000000000A00000000000100000000D1
:10042000002C76D888DC674F0823DFC1DFAE59E1A6
:10043000B1B796E5E3E453C63AE651997696E8E615
:10044000C28426EB898C9B62ED407C6FFCEFBC9CE8
:100450009F40F2BAA56FA5F490055A2AF75C936BFA
:100460006CF9676DC11BFCE0E40D47FEF520E6B5B5
:1004700000D0ED902E0300943577050080841E088F
:100480000000204E0A000000C80C333333330F98AD
:100490006E12831141EF8D2114893BE65516CFFE74
:1004A000E6DB18D1844B381BF77C1D901DA4BBE400
:1004B00024203284725E228100C9F124ECA1E53D42
:1004C0002700002100240027002A002D00300033DF
:1004D0000001010000040107010A010000220025BB
:1004E0000028002B002E003100340002010000051E
:1004F0000108010B01000020002300260029002C28
:10050000002F00320000010000030106010901056F
:10051000050505070508080808020202020A0A087C
:1005200008040404040101010101010101030303A2
:100530000303030303040707070C0C0C0C0C0C0C3F
:100540000C0202020206060606060606060B0B0B46
:100550000B0B0B0B0B07070A0A0A0A0A0A0505050B
:10056000040404080801021020200808102040108C
:100570002040800201020108040201010204081067
:100580002040808040201008040201800402018085
:1005900040201008040201080402010102040810AE
:1005A00020408001020408102040801008040880C8
:1005B000102040044080102040048000000A0B02FC
:1005C000090C0D0E080703040100000000000000E4
:1005D000000000000000000000000000000000001B
:1005E00000000000000000121110000000000000D8
:1005F00000000000000000000000000000000000FB
:1006000000000000000000000000000000000000EA
:100610000048617264636F64656420446566617557
:100620006C742053657474696E6773204C6F6164D9
:1006300065640053746F7265642073657474696EC9
:100640006773207265747269657665640020202086
:10065000452F44203D20002020204D393030204BB4
:10066000004C696E65617220616476616E6365201D
:1006700073657474696E67733A0046696C616D6581
:100680006E742073657474696E67733A204469737D
:1006900061626C6564002020204D323030204400BF
:1006A00046696C616D656E742073657474696E67FC
:1006B000733A002020204D323039205300417574A8
:1006C0006F2D526574726163743A20533D3020740B
:1006D0006F2064697361626C652C203120746F2017
:1006E000696E746572707265742065787472756471
:1006F000652D6F6E6C79206D6F7665732061732048
:100700007265747261637473206F72207265636FB7
:10071000766572696573002046002020204D3230D6
:10072000382053005265636F7665723A20533D4519
:1007300078747261206C656E67746820286D6D290D
:1007400020463A537065656420286D6D2F6D290031
:10075000205A002046002020204D32303720530000
:10076000526574726163743A20533D4C656E6774D0
:100770006820286D6D2920463A53706565642028ED
:100780006D6D2F6D29205A3A205A4C6966742028C5
:100790006D6D29002044002049002020204D333079
:1007A00034205000504944206865617462656420BB
:1007B00073657474696E67733A00204400204900C1
:1007C0002020204D333031205000504944207365A3
:1007D0007474696E67733A00205A00205900202013
:1007E0004D323036205800486F6D65206F66667355
:1007F000657420286D6D293A00204500205A00209C
:10080000590020580020420020540020204D323052
:1008100035205300416476616E63656420766172B1
:100820006961626C65733A20533D4D696E2066655F
:1008300065647261746520286D6D2F73292C2054B6
:100840003D4D696E2074726176656C2066656564E5
:100850007261746520286D6D2F73292C20423D6DC7
:10086000696E696D756D207365676D656E74207452
:10087000696D6520286D73292C20583D6D6178695C
:100880006D756D205859206A65726B20286D6D2F2B
:1008900073292C20205A3D6D6178696D756D205A41
:1008A000206A65726B20286D6D2F73292C202045DE
:1008B0003D6D6178696D756D2045206A65726B20AC
:1008C000286D6D2F73290020540020204D323034C4
:1008D000205300416363656C65726174696F6E3AA1
:1008E00020533D616363656C65726174696F6E2C42
:1008F00020543D7265747261637420616363656C3A
:1009000065726174696F6E00204500205A0020599D
:100910000020204D3230312058004D6178696D75CE
:100920006D20416363656C65726174696F6E202828
:100930006D6D2F7332293A00204500205A0020594E
:100940000020204D3230332058004D6178696D759C
:100950006D2066656564726174657320286D6D2F06
:1009600073293A00204500205A0020590020204DCC
:100970003932205800537465707320706572207589
:100980006E69743A0053657474696E6773205374AA
:100990006F72656400454550524F4D204572726F2D
:1009A000720029002C20002C200070687973696384
:1009B000616C20636F6F7264696E617465733A2055
:1009C000280029002C20002C2000776F726C6420F6
:1009D000636F6F7264696E617465733A2028006F8B
:1009E0006B0A002046002045004731205A004D3256
:1009F00034004D32362053256C75004D3130362091
:100A000053004D38320047312046256400473120DD
:100A100045322A342046343830004731205A0020ED
:100A200046323030300020590047312058004D38D0
:100A30003300506F736974696F6E20726561642052
:100A400066726F6D20656570726F6D3A004D32335E
:100A5000202573002E67636F0046656564726174BC
:100A6000653A007265636F7665725F6D6163686990
:100A70006E655F73746174655F61667465725F70E3
:100A80006F7765725F70616E69632C20696E69743F
:100A900069616C20007265636F7665725F6D61637A
:100AA00068696E655F73746174655F6166746572B1
:100AB0005F706F7765725F70616E69632C20696E1D
:100AC000697469616C200047393220450063757292
:100AD00072656E745F706F736974696F6E5B455F8A
:100AE000415849535D3A0063757272656E745F7068
:100AF0006F736974696F6E5B5A5F415849535D3A11
:100B00000043757272656E7420706F736974696FDB
:100B10006E20595F415849533A0043757272656EB1
:100B20007420706F736974696F6E20585F41584903
:100B3000533A0041667465722077616974696E6723
:100B400020666F722074656D703A00473120452D24
:100B50003420463438300047312045352046313284
:100B600030004D3833004D31393020532564004D6D
:100B7000313039205325640047323820582059003D
:100B80004731205A32352046383030004D3134302C
:100B900020532564004D3130342053256400494EE4
:100BA00054340055564C4F202D20656E64007374EC
:100BB00070730020423A0020453A00543A005A200F
:100BC0006C6976652061646A757374206F75742032
:100BD0006F662072616E67652E2053657474696E4E
:100BE0006720746F20302E20436C69636B20746F14
:100BF00020636F6E74696E75652E005A206C69767D
:100C0000652061646A757374206F7574206F662047
:100C100072616E67652E2053657474696E67207407
:100C20006F20300020573A0020453A00543A004BDC
:100C3000494C4C3A20004175746F0020452F443DCB
:100C400000416476616E6365204B3D0022283229A5
:100C500000496E76616C6964205420636F64652E70
:100C600000556E6B6E6F776E204D20636F64653A32
:100C7000202573200A006E6F2076616C6964206302
:100C80006F6D6D616E64002C20002C20002C200004
:100C90006E2F61002C20002C20002C20006E2F6174
:100CA000002F00503A005761697420666F7220501F
:100CB000494E4441207461726765742074656D709B
:100CC000657261747572653A004D32323020532579
:100CD0006900203A2000004C414E472053454C20EB
:100CE000464F5243454400222831290030303030ED
:100CF000303030302D303030302D303030302D30FD
:100D00003030302D303030303030303030303030E6
:100D10000020555549443A00310020455854525559
:100D20004445525F434F554E543A0033442050726D
:100D3000696E74657200204D414348494E455F54C9
:100D40005950453A00312E300020626173656420AD
:100D50006F6E204D61726C696E204649524D57414D
:100D600052455F55524C3A68747470733A2F2F672E
:100D700069746875622E636F6D2F7072757361335D
:100D8000642F50727573612D4669726D776172655B
:100D90002050524F544F434F4C5F56455253494F8A
:100DA0004E3A004649524D574152455F4E414D45DE
:100DB0003A50727573612D4669726D776172652064
:100DC000004D31313320530020002E0020423A00E4
:100DD00020453A00543A0020413A0020503A002081
:100DE00042403A0020403A00202F003A00205400B0
:100DF000202F0020423A00202F006F6B20543A0031
:100E00002569206D696E2C20256920736563004972
:100E10006E76616C6964204D20636F64653A2025AD
:100E200073200A00556E6B6E6F776E204720636FDC
:100E300064653A202573200A004D65736820626559
:100E400064206C6576656C696E67206E6F742061D6
:100E500063746976652E000A002020000A4D6561E2
:100E6000737572656420706F696E74733A000A5A04
:100E700020736561726368206865696768743A20E9
:100E8000002C004E756D20582C593A2000206D69B9
:100E900063726F6E7300457863657373697665205E
:100EA000626564206C6576656C696E6720636F723D
:100EB00072656374696F6E3A20004732382057308C
:100EC000003A200000205A20736869667420286D5B
:100ED0006D293A0050494E44412074656D70657229
:100EE00061747572653A2000002F36005374657086
:100EF0003A200000205A20736869667420286D6DBE
:100F0000293A0050494E44412074656D7065726104
:100F1000747572653A20002F362028736B697070E3
:100F200065642900537465703A2000005A45524F99
:100F30003A20000073746172742074656D7065727C
:100F400061747572653A200050494E4441207072B8
:100F50006F62652063616C6962726174696F6E2093
:100F6000737461727400473238205730000A0020D1
:100F70005A3A200020593A200020583A2000534580
:100F8000545F535445505F45005345545F57415695
:100F9000455F4500544D435F0043524153485F0055
:100FA00020453A00205A3A0020593A0020453A009C
:100FB000205A3A0020593A00583A0043616C69625D
:100FC000726174696F6E206661696C65642120438B
:100FD0006865636B20746865206178657320616E55
:100FE000642072756E20616761696E2E002533641E
:100FF00020737465703D253264206D73636E743D9B
:101000002534640A0043524153485F4445544543E4
:1010100054454458590043524153485F4445544550
:1010200043544544590043524153485F4445544555
:101030004354454458004D323900627573793A2063
:1010400070617573656420666F7220696E70757467
:1010500000627573793A2070617573656420666FFC
:1010600072207573657200627573793A2070726FC1
:1010700063657373696E67002055706C6F616420DF
:10108000696E2070726F6772657373004A756E20A7
:101090002036203230313800436F6D70696C6564E2
:1010A0003A2000286E6F6E652C2064656661756C51
:1010B0007420636F6E66696729004A756E2020365A
:1010C00020323031382030323A35343A313700204E
:1010D000332E352D3537360A00737461727400462D
:1010E0006163746F7279205245534554001B5B3223
:1010F0004A1B5B313B31485072757361204D4B3355
:101100001B5B323B33484D756C74694D617465727D
:1011100069616C0025002020202020200020202054
:101120002020200045524153494E4720616C6C20DD
:101130006461746100466163746F72792052455333
:1011400045540043524153485F5245434F56455220
:10115000004732382058205900FFFFFF0000A04010
:101160000000A0400000004000007F430080584382
:101170009AD9514300000000000080C09A99193E9E
:1011800000007F43008054430000524300000000F1
:10119000000080C09A99193E6563686F3A004572F5
:1011A000726F723A0000002110422063308440A523
:1011B00050C660E770088129914AA16BB18CC1AD1E
:1011C000D1CEE1EFF13112100273325222B55294B6
:1011D00042F772D662399318837BB35AA3BDD39C6E
:1011E000C3FFF3DEE36224433420040114E664C742
:1011F00074A44485546AA54BB528850995EEE5CFBE
:10120000F5ACC58DD55336722611163006D776F655
:10121000669556B4465BB77AA719973887DFF7FE0D
:10122000E79DD7BCC7C448E5588668A778400861E1
:101230001802282338CCC9EDD98EE9AFF94889695D
:10124000990AA92BB9F55AD44AB77A966A711A50F5
:101250000A333A122AFDDBDCCBBFFB9EEB799B58AD
:101260008B3BBB1AABA66C877CE44CC55C222C0381
:101270003C600C411CAEED8FFDECCDCDDD2AAD0BFD
:10128000BD688D499D977EB66ED55EF44E133E3295
:101290002E511E700E9FFFBEEFDDDFFCCF1BBF3A4D
:1012A000AF599F788F8891A981CAB1EBA10CD12D3C
:1012B000C14EF16FE18010A100C230E3200450253F
:1012C0004046706760B9839893FBA3DAB33DC31CB3
:1012D000D37FE35EF3B1029012F322D2323542148F
:1012E0005277625672EAB5CBA5A89589856EF54FFF
:1012F000E52CD50DC5E234C324A0148104667447DF
:101300006424540544DBA7FAB79987B8975FE77E52
:10131000F71DC73CD7D326F2369106B0165766762E
:1013200076154634564CD96DC90EF92FE9C899E99E
:10133000898AB9ABA94458654806782768C018E17E
:10134000088238A3287DCB5CDB3FEB1EFBF98BD8F2
:101350009BBBAB9ABB754A545A376A167AF10AD0CE
:101360001AB32A923A2EFD0FED6CDD4DCDAABD8B3E
:10137000ADE89DC98D267C076C645C454CA23C831E
:101380002CE01CC10C1FEF3EFF5DCF7CDF9BAFBA92
:10139000BFD98FF89F176E367E554E745E932EB26E
:1013A0003ED10EF01E7C3C3E5E2B3D3F2F5B5D3BF5
:1013B0002C2A225C004D3234004D3233202573003C
:1013C0006175746F25692E67004E6F742053442039
:1013D0007072696E74696E67000A002F000A002E31
:1013E0000044656C6574696F6E206661696C656444
:1013F0002C2046696C653A200046696C652064655E
:101400006C657465643A002E002E002E002E004E8E
:101410006F772066726573682066696C653A200094
:101420004E6F7720646F696E672066696C653A203D
:10143000002220706F73002220706172656E743A12
:101440002200535542524F5554494E452043414C7A
:101450004C207461726765743A2200747279696E07
:101460006720746F2063616C6C207375622D6763F5
:101470006F64652066696C65732077697468207491
:101480006F6F206D616E79206C6576656C732E20B0
:101490004D4158206C6576656C2069733A0025696A
:1014A00020686F757273202569206D696E7574658B
:1014B000730054494D454F55543A004D3131300079
:1014C00046756C6C20525820427566666572002223
:1014D000206661696C65643A2042756666657220B3
:1014E00066756C6C2100456E717565696E67207458
:1014F0006F207468652066726F6E743A2022002235
:1015000000456E717565696E6720746F207468653B
:101510002066726F6E743A20220022206661696C28
:1015200065643A204275666665722066756C6C214A
:101530000022003344205072696E746572206F6B14
:10154000003344205072696E746572207265616464
:10155000792E007A5F6D696E3A20007A5F6D61784E
:101560003A20005A204F666673657400795F6D6992
:101570006E3A2000795F6D61783A20005920767AC2
:1015800064616C656E6F7374206F64206D696E3A70
:1015900000592064697374616E63652066726F6DB3
:1015A000206D696E3A00416E6F0059657300785F77
:1015B0006D696E3A2000785F6D61783A200044656D
:1015C0007461696C792058595A206B616C2E0058EF
:1015D000595A2063616C2E2064657461696C7300D4
:1015E0004E796E692070726F76656475207A206B13
:1015F000616C6962726163692E00492077696C6C65
:101600002072756E207A2063616C69627261746900
:101610006F6E206E6F772E004E796E692070726F3C
:10162000766564752078797A206B616C6962726185
:1016300063692E205A616265726520746F20707232
:1016400069626C697A6E65203132206D696E2E0098
:10165000492077696C6C2072756E2078797A2063E6
:10166000616C6962726174696F6E206E6F772E2093
:1016700049742077696C6C2074616B6520617070AF
:10168000726F782E203132206D696E732E00446F98
:101690006272792064656E2C206A73656D207661B4
:1016A0007365207469736B61726E61204F72696734
:1016B000696E616C2050727573612069332E20430E
:1016C0006863657465206162796368205661732080
:1016D00070726F7665646C61206B616C69627261B7
:1016E000636E696D2070726F636573656D3F00484E
:1016F000656C6C6F2E20576F756C6420796F752048
:101700006C696B65206D6520746F20677569646511
:1017100020796F75207468726F75676820746865CA
:101720002073657475702070726F636573733F000A
:101730005A61636E75207469736B6E6F7574206C7B
:10174000696E6B75206120567920627564657465D9
:1017500020706F737475706E6520736E697A6F7622
:10176000617420747279736B75206F746163656E38
:10177000696D20746C616369746B6120646F6B7553
:1017800064206E65646F7361686E657465206F7048
:1017900074696D616C6E69207679736B792E205057
:1017A000726F686C65646E657465207369206F6222
:1017B00072617A6B792076206E617369207072692C
:1017C00072756363652076206B617069746F6C65F8
:1017D000204B616C69627261636500492077696CB6
:1017E0006C20737461727420746F207072696E74EF
:1017F000206C696E6520616E6420796F7520776951
:101800006C6C206772616475616C6C79206C6F77A9
:10181000657220746865206E6F7A7A6C65206279D3
:1018200020726F746174696E6720746865206B6ED6
:101830006F622C20756E74696C20796F75207265EB
:10184000616368206F7074696D616C206865696799
:1018500068742E20436865636B2074686520706926
:1018600063747572657320696E206F75722068618C
:101870006E64626F6F6B20696E206368617074655F
:10188000722043616C6962726174696F6E2E004EE2
:10189000796E69207A6B616C696272756A6920760B
:1018A0007A64616C656E6F7374206D657A69206B04
:1018B0006F6E63656D20747279736B79206120702F
:1018C0006F76726368656D206865617462656475C2
:1018D0002E004E6F7720492077696C6C2063616C15
:1018E0006962726174652064697374616E636520F6
:1018F0006265747765656E20746970206F66207408
:101900006865206E6F7A7A6C6520616E6420686508
:10191000617462656420737572666163652E004E42
:10192000656A6472697620706F6D6F636920736594
:101930006C667465737475207A6B6F6E746F6C75FA
:101940006A69206E656A63617374656A736920638E
:101950006879627920767A6E696B616A6963692059
:1019600070726920736573746176656E692074693D
:10197000736B61726E792E0046697273742C204904
:101980002077696C6C2072756E20746865207365B1
:101990006C667465737420746F20636865636B2074
:1019A0006D6F737420636F6D6D6F6E2061737365FF
:1019B0006D626C792070726F626C656D732E00536E
:1019C00070757374656E692057697A6172646120FD
:1019D00076796D617A6520756C6F7A656E652076B3
:1019E00079736C65646B79207673656368206B61CD
:1019F0006C696272616369206120737075737469C8
:101A0000206B616C69627261636E692070726F63D2
:101A10006573206F64207A616361746B752E20504A
:101A20006F6B7261636F7661743F0052756E6E69A1
:101A30006E672057697A6172642077696C6C2064E4
:101A4000656C6574652063757272656E7420636180
:101A50006C6962726174696F6E20726573756C7403
:101A60007320616E642073746172742066726F6D8E
:101A70002074686520626567696E6E696E672E20E6
:101A8000436F6E74696E75653F0043686365746586
:101A9000206F70616B6F76617420706F736C65641A
:101AA0006E69206B726F6B206120706F7A6D656E4E
:101AB000697420767A64616C656E6F7374206D65ED
:101AC0007A6920747279736B6F7520612068656123
:101AD000746265643F00446F20796F752077616E92
:101AE0007420746F20726570656174206C6173740A
:101AF000207374657020746F20726561646A7573F9
:101B0000742064697374616E6365206265747765BF
:101B1000656E206E6F7A7A6C6520616E64206865F0
:101B200061746265643F0057697A61726461206D17
:101B3000757A657465206B64796B6F6C6976207A51
:101B40006E6F76752073707573746974207A206D6A
:101B5000656E752043616C6962726174696F6E2095
:101B60002D3E2057697A61726400596F7520636158
:101B70006E20616C7761797320726573756D652075
:101B80007468652057697A6172642066726F6D208F
:101B900043616C6962726174696F6E202D3E2057DB
:101BA000697A6172642E004A6520746F20504C413E
:101BB0002066696C616D656E743F004973206974BD
:101BC00020504C412066696C616D656E743F005019
:101BD000726F73696D20766C6F7A746520504C411A
:101BE0002066696C616D656E7420646F2065787421
:101BF0007275646572752C20706F20746520737423
:101C000069736B6E65746520746C616369746B6F66
:101C10002070726F207A61766564656E69206669EE
:101C20006C616D656E74752E00506C656173652016
:101C3000696E7365727420504C412066696C616DE9
:101C4000656E7420746F2074686520657874727591
:101C50006465722C207468656E20707265737320E1
:101C60006B6E6F6220746F206C6F61642069742EDC
:101C70000050726F73696D207A61766564746520B7
:101C8000504C412066696C616D656E7420612070F6
:101C90006F207465206F626E6F7674652057697A65
:101CA0006172646120737469736B6E7574696D2001
:101CB000726573657420746C616369746B612E0066
:101CC000506C65617365206C6F616420504C4120DD
:101CD00066696C616D656E7420616E642074686500
:101CE0006E20726573756D652057697A6172642024
:101CF0006279207265626F6F74696E6720746865BF
:101D0000207072696E7465722E0050726564656829
:101D1000726976616D20747279736B752E205072C2
:101D20006F73696D2063656B656A74652E00507210
:101D30006568656174696E67206E6F7A7A6C652E6E
:101D400020506C6561736520776169742E004A6567
:101D50002066696C616D656E74207A617665646574
:101D60006E3F0049732066696C616D656E74206C0E
:101D70006F616465643F00567365206A6520686F13
:101D8000746F766F2E00416C6C20697320646F6EE7
:101D9000652E204861707079207072696E74696E6A
:101DA00067210050726F73696D206F63697374658A
:101DB000746520686561746265642061207374696C
:101DC000736B6E65746520746C616369746B6F2EE0
:101DD00000506C6561736520636C65616E20686599
:101DE000617462656420616E64207468656E207041
:101DF0007265737320746865206B6E6F622E00507D
:101E0000726F73696D206E61686C65646E65746570
:101E100020646F206D616E75616C752061206F703C
:101E200072617674652070726F626C656D2E2050E1
:101E30006F207465206F626E6F7674652057697AC3
:101E400061726461207265626F6F746F76616E6932
:101E50006D207469736B61726E792E00506C6561D0
:101E6000736520636865636B206F75722068616EAF
:101E700064626F6F6B20616E64206669782074689D
:101E8000652070726F626C656D2E205468656E20DF
:101E9000726573756D65207468652057697A617223
:101EA00064206279207265626F6F74696E67207456
:101EB0006865207072696E7465722E0057697A6168
:101EC000726400205761746368646F6720526573A1
:101ED000657400496E666F726D61636500496E6678
:101EE0006F2073637265656E0043656B616E692078
:101EF0006E61207A63686C61646E75746920504904
:101F00004E44410057616974696E6720666F7220A4
:101F100050494E44412070726F626520636F6F6C50
:101F2000696E670043656B616E69206E61207A633C
:101F3000686C61646E75746920747279736B792052
:101F40006120706F646C6F7A6B792E0057616974D1
:101F5000696E6720666F72206E6F7A7A6C65206199
:101F60006E642062656420636F6F6C696E67004BFE
:101F7000616C2E207072766E692076727374767939
:101F8000004669727374206C617965722063616CBC
:101F90002E005761697420666F7220757365722E0A
:101FA0002E2E00506F757A69746520626568656DC4
:101FB000207469736B75005573656420647572696C
:101FC0006E67207072696E740042796C6F2076794A
:101FD00073756E7574692066696C616D656E747574
:101FE0002075737065736E653F0057617320666975
:101FF0006C616D656E7420756E6C6F6164207375B5
:10200000636365737366756C3F0056796A6D6F75AF
:10201000742066696C616D2E203400556E6C6F61A2
:10202000642066696C616D656E7420340056796A4F
:102030006D6F75742066696C616D2E203300556E6E
:102040006C6F61642066696C616D656E742033002D
:1020500056796A6D6F75742066696C616D2E2032D9
:1020600000556E6C6F61642066696C616D656E749D
:1020700020320056796A6D6F75742066696C616DE7
:102080002E203100556E6C6F61642066696C616D45
:10209000656E7420310056796A6D6F7574206669BB
:1020A0006C616D656E7400556E6C6F61642066695D
:1020B0006C616D656E740056796A6D6F757420760B
:1020C000736500556E6C6F616420616C6C005679AD
:1020D000736F7576616D2066696C616D656E7400F5
:1020E000556E6C6F6164696E672066696C616D65C1
:1020F0006E7400556E6B6E6F776E20636F6D6D61E1
:102100006E643A2022004C616469740054756E65F7
:102110000053442063617264205B466C73684169BC
:10212000725D005344206361726420205B6E6F72A5
:102130006D616C5D00537461626C6520616D6269F4
:10214000656E742074656D7065726174757265205A
:1021500032312D323643206973206E6565646564C3
:102160002061207269676964207374616E642069FC
:10217000732072657175697265642E005465706CA8
:102180006F746E69206B616C696272616365207344
:10219000656C68616C610054656D70657261747521
:1021A00072652063616C6962726174696F6E20662A
:1021B00061696C6564005465706C2E206B616C2ED7
:1021C00020205B7A61705D0054656D702E20636124
:1021D0006C2E2020205B6F6E5D005465706C2E208D
:1021E0006B616C2E20205B7679705D0054656D709C
:1021F0002E2063616C2E20205B6F66665D00546547
:10220000706C6F746E69206B616C6962726163657A
:1022100020646F6B6F6E63656E612061206A65205C
:102220006E796E6920616B7469766E692E205465D3
:10223000706C6F746E69206B616C69627261636946
:10224000206A65206D6F7A6E6F206465616B7469BA
:10225000766F7661742076206D656E75204E6173A1
:10226000746176656E692D3E5465706C2E206B61CD
:102270006C2E0054656D70657261747572652063B3
:10228000616C6962726174696F6E2069732066693E
:102290006E697368656420616E6420616374697639
:1022A000652E2054656D702E2063616C69627261C9
:1022B00074696F6E2063616E20626520646973616A
:1022C000626C656420696E206D656E75205365745F
:1022D00074696E67732D3E54656D702E2063616C5A
:1022E0002E005465706C2E206B616C2E20202020F7
:1022F0002020202020200054656D702E2063616C0A
:102300002E20202020202020202020005465706CCA
:102310006F74610054656D706572617475726500EB
:10232000506F64706F726100537570706F727400DB
:102330005A61737461766974207469736B005374A5
:102340006F70207072696E740053544F5050454442
:102350002E2000537465707261746520746F6F2055
:10236000686967683A20004A65207469736B6F7604
:102370007920706C6174206E61206865617462659B
:10238000643F00497320737465656C2073686565EC
:1023900074206F6E20686561746265643F004D6FE4
:1023A0006420202020205B537465616C74685D009C
:1023B0004D6F6465202020205B537465616C7468E8
:1023C0005D004D6F642020202020205B4E6F726DD9
:1023D000616C5D004D6F646520202020205B4E6F96
:1023E000726D616C5D0043656C6B6F767920636123
:1023F00073203A00546F74616C207072696E74209F
:1024000074696D65203A0046696C616D656E742073
:1024100063656C6B656D203A00546F74616C206667
:10242000696C616D656E74203A0043617320746954
:10243000736B75203A2020005072696E74207469A5
:102440006D653A20200046696C616D656E74203AB6
:1024500020200046696C616D656E7420757365643B
:102460003A20200053746174697374696B61202091
:102470000053746174697374696373202000436846
:10248000796261202D20446F736C6F206B20707215
:102490006570697375207374617469636B6520700E
:1024A000616D65746921004572726F72202D207311
:1024B0007461746963206D656D6F727920686173F2
:1024C000206265656E206F766572777269747465D7
:1024D0006E00527963686C6F737400537065656445
:1024E0000054726964656E6920202020205B43617E
:1024F000735D00536F72743A2020202020205B54BB
:10250000696D655D0054726964656E692020205BA9
:102510005A61646E655D00536F72743A202020200A
:1025200020205B4E6F6E655D0054726964656E6954
:10253000205B416265636564615D00536F72743A4C
:1025400020205B416C7068616265745D0054726943
:1025500064656E6920736F75626F727500536F7278
:1025600074696E672066696C65730020536F6674CA
:1025700077617265205265736574004C65686B65A0
:10258000207A6B6F73656E693A00536C6967687483
:1025900020736B65773A0053746176206B6F6E63BE
:1025A0002E207370696E2E0053686F7720656E64FD
:1025B0002073746F70730054657A6B65207A6B6F4B
:1025C00073656E693A0053657665726520736B6555
:1025D000773A004E61737461767465207465706C2F
:1025E0006F74753A005365742074656D706572611F
:1025F000747572653A004E6173746176656E690038
:1026000053657474696E6773004368796261207AF8
:1026100061706F6A656E6900576972696E672065DF
:1026200072726F720050726F686F7A656E650053D8
:102630007761707065640053656C662074657374AF
:102640002073746172742020005469736B6F767903
:102650002076656E742E3A005072696E7420666141
:102660006E3A005A6B6F6E74726F6C756A74652087
:102670003A00506C6561736520636865636B203A4E
:102680000053656C662074657374204F4B004E6573
:102690007A61706F6A656E6F20202020004E6F7423
:1026A00020636F6E6E6563746564004D6F746F7246
:1026B000004865617465722F546865726D69737442
:1026C0006F720053656E7A6F722066696C616D651A
:1026D0006E74753A0046696C616D656E7420736541
:1026E0006E736F723A00546F6369207365005370A4
:1026F000696E6E696E67004E65746F6369207365FD
:10270000004E6F74207370696E6E696E6700507250
:1027100065646E692F6C6576792076656E742E001F
:1027200046726F6E742F6C6566742066616E7300FE
:10273000546573742076656E74696C61746F72751C
:102740000046616E20746573740053656C66746531
:1027500073742073656C68616C20200053656C662F
:1027600074657374206661696C65642020004C6533
:1027700076792076656E742E3A00457874727564A9
:1027800065722066616E3A004C6576792076656EDA
:1027900074206E61207472797363653F004C6566C6
:1027A0007420686F74656E642066616E3F005365C7
:1027B0006C6674657374206572726F7220210045B7
:1027C0006E6473746F70206E6F7420686974004556
:1027D0006E6473746F707300456E6473746F700011
:1027E000507265646E69207469736B6F76792076B8
:1027F000656E743F0046726F6E74207072696E74FD
:102800002066616E3F004B6F6E74726F6C61205A70
:102810002061786973202000436865636B696E6787
:10282000205A20617869732020004B6F6E74726F9C
:102830006C612059206178697320200043686563CA
:102840006B696E67205920617869732020004B6F97
:102850006E74726F6C61205820617869732020005B
:10286000436865636B696E672058206178697320DF
:1028700020004B6F6E74726F6C6120686F74656EB0
:1028800064202000436865636B696E6720686F741D
:10289000656E642020004B6F6E74726F6C612073E4
:1028A000656E7A6F727500436865636B696E672049
:1028B00073656E736F727320004B6F6E74726F6C02
:1028C0006120656E6473746F707300436865636B39
:1028D000696E6720656E6473746F7073004B6F6E02
:1028E00074726F6C61206265642020202020004398
:1028F0006865636B696E6720626564202020202014
:1029000000567365204F4B202020202020202020BF
:10291000202000416C6C20636F727265637420200C
:102920002020202000426564202F204865617465C6
:10293000720044656C6B61206F7379004178697334
:10294000206C656E677468004F736100417869732D
:102950000053656C6674657374202020202020204D
:1029600020200057726974696E6720746F20666951
:102970006C653A2000766F6C756D652E696E6974B2
:10298000206661696C6564002053697A653A2000AD
:102990004B617274612076796A6D75746100436170
:1029A00072642072656D6F766564005344207072A6
:1029B000696E74696E67206279746520006F706556
:1029C0006E206661696C65642C2046696C653A20EE
:1029D000006F70656E526F6F74206661696C65641C
:1029E000004B6172746120766C6F7A656E61004392
:1029F00061726420696E736572746564005344206B
:102A0000696E6974206661696C0046696C65207343
:102A1000656C65637465640046696C65206F7065FC
:102A20006E65643A20006572726F72207772697405
:102A3000696E6720746F2066696C6500534420637B
:102A4000617264206F6B0043616E6E6F7420656EFF
:102A5000746572207375626469723A200050726105
:102A600076793A0052696768743A004F626E6F7601
:102A70006F76616E69207469736B7500526573754A
:102A80006D696E67207072696E74004F626E6F764A
:102A9000656E69207469736B7500526573756D6935
:102AA0006E67207072696E7400506F6B7261636F35
:102AB00076617400526573756D65207072696E740D
:102AC00000526573656E643A20004F6473747261DE
:102AD0006E7465207469736B6F767920706C6174A5
:102AE000207A20686561746265642070726F736912
:102AF0006D2E00506C656173652072656D6F766533
:102B000020737465656C2073686565742066726FE8
:102B10006D20686561746265642E00446574656B40
:102B20006F76616E207679706164656B2070726F6C
:102B30007564752E4F626E6F766974207469736B5D
:102B40003F00426C61636B6F7574206F63637572D5
:102B50007265642E205265636F76657220707269AB
:102B60006E743F004F626E6F766F76616E6920748F
:102B700069736B7520202020005265636F76657243
:102B8000696E67207072696E742020202000507278
:102B90006F73696D2076796A6D65746520757279D9
:102BA00063686C656E652066696C616D656E740046
:102BB000506C656173652070756C6C206F75742046
:102BC00066696C616D656E7420696D6D65646961BF
:102BD00074656C7900686F77746F2E7072757361AD
:102BE00033642E637A00686F77746F2E707275731A
:102BF0006133642E636F6D00666F72756D2E707237
:102C000075736133642E637A00666F72756D2E7012
:102C10007275736133642E636F6D007072757361CA
:102C200033642E637A00707275736133642E636F40
:102C30006D005469736B20706F7A6173746176658F
:102C40006E005072696E7420706175736564005413
:102C500069736B20707265727573656E005072696E
:102C60006E742061626F727465640050726F2076BA
:102C70007973756E7574692066696C616D656E74C3
:102C80007520737469736B6E6574652070726F73F1
:102C9000696D20746C616369746B6F00506C656161
:102CA000736520707265737320746865206B6E6F36
:102CB0006220746F20756E6C6F61642066696C6150
:102CC0006D656E740050726F206E61687261746918
:102CD00020747279736B79206120706F6B726163FD
:102CE0006F76616E6920737469736B6E65746520AD
:102CF000746C616369746B6F2E005072657373201E
:102D00006B6E6F6220746F207072656865617420ED
:102D10006E6F7A7A6C6520616E6420636F6E746981
:102D20006E75652E006120737469736B6E657465D2
:102D300020746C616369746B6F00616E64207072E3
:102D400065737320746865206B6E6F6200507269E2
:102D50007072617674652066696C616D656E740071
:102D600050726570617265206E65772066696C616E
:102D70006D656E740050726564656872656A74652D
:102D800020747279736B7521005072656865617487
:102D900020746865206E6F7A7A6C652100507265C8
:102DA000646568726576005072656865617400508C
:102DB0006F77657255700050726F73696D2063652F
:102DC0006B656A746500506C656173652077616935
:102DD00074004E656A6472697665207A617665640E
:102DE000746520504C412066696C616D656E74207D
:102DF00070726F73696D2E00506C65617365206C25
:102E00006F616420504C412066696C616D656E7421
:102E10002066697273742E004A6520504C4120660A
:102E2000696C616D656E74207A61766564656E3F6C
:102E300000497320504C412066696C616D656E7469
:102E4000206C6F616465643F002020506C616E6E81
:102E5000657242756666657242797465733A2000E0
:102E6000556D6973746574652070726F73696D2038
:102E70007469736B6F767920706C6174206E612059
:102E80006865617462656400506C6561736520708B
:102E90006C61636520737465656C20736865657427
:102EA000206F6E20686561746265642E004E6168F3
:102EB000726976616E692050494E44410050494E16
:102EC00044412048656174696E6700504944206B35
:102ED000616C2E2020202020202020202020005047
:102EE00049442063616C2E202020202020202020B7
:102EF000202000504944206B616C2E20756B6F6E52
:102F000063656E61005049442063616C2E206669E0
:102F10006E697368656400504944206B616C696236
:102F200072616365005049442063616C696272613B
:102F300074696F6E00506F7A617374617669742082
:102F40007469736B005061757365207072696E747B
:102F500000556D697374657465206C6973742070B5
:102F60006170697275206E6120706F646C6F7A6B2E
:102F7000752061207564727A756A7465206A656A65
:102F800020706F6420747279736B6F75206265684E
:102F9000656D206D6572656E69207072766E69630D
:102FA00068203420626F64752E20506F6B7564202A
:102FB000747279736B61207A6163687974692070C7
:102FC000617069722C207679706E65746520746901
:102FD000736B61726E752E00506C616365206120A9
:102FE0007368656574206F66207061706572207506
:102FF0006E64657220746865206E6F7A7A6C6520E5
:10300000647572696E67207468652063616C6962BB
:10301000726174696F6E206F6620666972737420C6
:103020003420706F696E74732E2049662074686551
:10303000206E6F7A7A6C65206361746368657320B3
:103040007468652070617065722C20706F7765728E
:10305000206F666620746865207072696E74657290
:1030600020696D6D6564696174656C792E006F6BA4
:10307000004F6666004E6F206D6F76652E005A61B8
:10308000646E61205344206B61727461004E6F2046
:103090005344206361726400547279736B61004E13
:1030A0006F7A7A6C650046696C616D656E74206E2E
:1030B000657A61766564656E0046696C616D656E02
:1030C00074206E6F74206C6F61646564004261727D
:1030D0007661206E656E6920636973746100436F69
:1030E0006C6F72206E6F7420636F72726563740010
:1030F0004E65004E6F0050726F73696D20616B7486
:1031000075616C697A756A74652E00506C656173BF
:103110006520757067726164652E005679736C6105
:10312000206E6F7661207665727A65206669726DB1
:10313000776172653A004E6577206669726D7761D6
:1031400072652076657273696F6E20617661696C55
:1031500061626C653A00506F73756E6F7574205ABA
:10316000004D6F7665205A00506F73756E6F7574E1
:103170002059004D6F7665205900506F73756E6F42
:1031800075742058004D6F7665205800457874722C
:103190007564657200506F73756E6F7574206F7310
:1031A00075004D6F76652061786973004D657368B1
:1031B00020426564204C6576656C696E67004E61DF
:1031C0007065746900566F6C74616765730054654F
:1031D000706C6F74790054656D706572617475728E
:1031E0006573004B616C6962726163650043616C79
:1031F0006962726174696F6E0053746176207265E2
:103200006D656E750042656C7420737461747573BE
:1032100000207A203900206F662039004D657269E0
:103220006D207265666572656E636E69207679736E
:103230006B75206B616C69627261636E69686F2087
:10324000626F6475004D6561737572696E67207297
:1032500065666572656E6365206865696768742078
:103260006F662063616C6962726174696F6E207051
:103270006F696E74004D6572656E65207A6B6F7351
:10328000656E693A004D6561737572656420736B94
:1032900065773A005B303B305D20706F696E74205B
:1032A0006F666673657400486C61766E69206E6146
:1032B0006269646B61004D61696E004D323231208C
:1032C000496E76616C6964206578747275646572A4
:1032D00020004D32313820496E76616C696420657A
:1032E0007874727564657220004D32303020496EFA
:1032F00076616C696420657874727564657220000B
:103300005265706F7274696E6720656E6473746F56
:103310007020737461747573004D313137204B61C7
:103320006C2E207072766E692076727374767900D6
:103330004D313137204669727374206C6179657242
:103340002063616C2E004D31303920496E76616CFE
:10335000696420657874727564657220004D31303F
:103360003520496E76616C69642065787472756485
:10337000657220004D31303420496E76616C69648D
:10338000206578747275646572200055766F6C6E76
:10339000656E612072656D656E69636B61004C6F6F
:1033A0006F73652070756C6C6579005A6176657312
:1033B000742066696C616D656E742034004C6F61B9
:1033C000642066696C616D656E742034005A6176A4
:1033D0006573742066696C616D656E742033004C92
:1033E0006F61642066696C616D656E742033005A8C
:1033F00061766573742066696C616D656E742032E8
:10340000004C6F61642066696C616D656E7420327A
:10341000005A61766573742066696C616D656E74BF
:103420002031004C6F61642066696C616D656E745B
:103430002031005A61766573742066696C616D6530
:103440006E74004C6F61642066696C616D656E74AA
:10345000005A617665737420767365004C6F616401
:1034600020616C6C005A61766164656E69206669E2
:103470006C616D656E7475004C6F6164696E672078
:1034800066696C616D656E740043697374656E691D
:10349000206261727679004C6F6164696E672063A7
:1034A0006F6C6F72004C6576793A004C6566743AC1
:1034B000005679626572206A617A796B61005365A2
:1034C0006C656374206C616E677561676500436548
:1034D0007374696E6100456E676C697368004B496F
:1034E0004C4C45442E20005469736B2E2076656E3B
:1034F000743A005072696E742046414E3A2000546E
:103500007279736B2E2076656E743A004E6F7A7AFC
:103510006C652046414E3A00457874727564657258
:1035200020696E666F004B616C696272756A692012
:103530005A0043616C6962726174696E67205A0057
:103540004B616C696272616365204F4B0043616C33
:103550006962726174696F6E20646F6E65004B61A1
:103560006C6962726F766174205A0043616C6962A3
:1035700072617465205A005A6168726976616E6979
:10358000204F4B2E0048656174696E6720646F6E32
:10359000652E005A6168726976616E6900486561DE
:1035A00074696E67002046726565204D656D6F72A7
:1035B000793A200050726F206B616C6962726163AE
:1035C0006920707265736E65686F207265686F6DD3
:1035D0006F76616E692062756465206E796E692010
:1035E0007370757374656E2073656C66746573743F
:1035F0002E0053656C66746573742077696C6C205B
:1036000062652072756E20746F2063616C696272EE
:103610006174652061636375726174652073656EA2
:10362000736F726C657373207265686F6D696E6716
:103630002E005469736B61726E61206E6562796CE5
:1036400061206A65737465207A6B616C6962726F60
:1036500076616E612E20506F73747570756A746533
:103660002070726F73696D20706F646C65206D617E
:103670006E75616C752C206B617069746F6C612064
:103680005A6163696E616D652C206F647374617635
:10369000656320506F73747570206B616C69627222
:1036A0006163652E005072696E7465722068617383
:1036B000206E6F74206265656E2063616C69627252
:1036C00061746564207965742E20506C6561736542
:1036D00020666F6C6C6F7720746865206D616E7505
:1036E000616C2C2063686170746572204669727326
:1036F000742073746570732C2073656374696F6EC6
:103700002043616C6962726174696F6E20666C6FD0
:10371000772E00507275746F6B00466C6F770044A3
:103720006F6B6F6E636F76616E6920706F68796220
:10373000750046696E697368696E67206D6F76659E
:103740006D656E747300207A203400206F6620341B
:1037500000486C6564616D206B616C6962726163C5
:103760006E6920626F6420706F646C6F7A6B790091
:10377000536561726368696E672062656420636186
:103780006C6962726174696F6E20706F696E74002B
:10379000446F6E6520736176696E672066696C653B
:1037A0002E00446F6E65207072696E74696E6720BA
:1037B00066696C6500536F75626F72206E656B6F22
:1037C0006D706C65746E692E20506F6B7261636FE3
:1037D0007661743F0046696C6520696E636F6D7039
:1037E0006C6574652E20436F6E74696E756520611B
:1037F0006E797761793F004E656B746572652073F1
:103800006F75626F7279206E656275646F75207373
:103810006574726964656E792E204D6178696D6199
:103820006C6E6920706F63657420736F75626F7260
:10383000752070726F20736574726964656E69209B
:103840006A65203130302E00536F6D652066696CDB
:1038500065732077696C6C206E6F742062652073CD
:103860006F727465642E204D61782E204E6F2E206D
:103870006F662066696C657320696E203120666F03
:103880006C64657220666F7220736F7274696E6704
:10389000206973203130302E0053656E7A6F7220AC
:1038A00066696C616D656E74750046696C616D6505
:1038B0006E742073656E736F7200566C6F7A7465E8
:1038C0002066696C616D656E7420646F2065787424
:1038D00072756465727520342E20506F7476726430
:1038E000746520746C616369746B656D2E00496E3C
:1038F000736572742066696C616D656E7420696EA3
:10390000746F20657874727564657220342E20435C
:103910006C69636B207768656E20646F6E652E003E
:10392000566C6F7A74652066696C616D656E742083
:10393000646F2065787472756465727520332E200B
:10394000506F74767264746520746C616369746B13
:10395000656D2E00496E736572742066696C616DC9
:10396000656E7420696E746F206578747275646515
:103970007220332E20436C69636B207768656E205C
:10398000646F6E652E00566C6F7A74652066696C84
:10399000616D656E7420646F2065787472756465FE
:1039A000727520322E20506F7476726474652074A4
:1039B0006C616369746B656D2E00496E736572741A
:1039C0002066696C616D656E7420696E746F206528
:1039D0007874727564657220322E20436C69636B53
:1039E000207768656E20646F6E652E00566C6F7A66
:1039F00074652066696C616D656E7420646F206506
:103A0000787472756465727520312E20506F7476EB
:103A10007264746520746C616369746B656D2E00EB
:103A2000496E736572742066696C616D656E742091
:103A3000696E746F20657874727564657220312EBA
:103A400020436C69636B207768656E20646F6E65D8
:103A50002E0056796D656E69742066696C616D65BE
:103A60006E74004368616E67652066696C616D65A0
:103A70006E7400527963686C6F73742076656E742F
:103A80002E0046616E207370656564004B6F6E7426
:103A9000722E2076656E742E5B7A61705D004661D1
:103AA0006E7320636865636B2020205B6F6E5D0022
:103AB0004B6F6E74722E2076656E742E5B76797005
:103AC0005D0046616E7320636865636B20205B6FE9
:103AD00066665D00656E717565696E6720220020FF
:103AE000205B6F666600452D636F727265637400BC
:103AF0004578747275646572203400457874727507
:103B00006465722033004578747275646572203282
:103B1000004578747275646572203100457874725E
:103B200075646572002045787465726E616C205210
:103B300065736574005072696E7465722073746F7A
:103B4000707065642064756520746F206572726F93
:103B500072732E2046697820746865206572726FD2
:103B60007220616E6420757365204D393939207477
:103B70006F20726573746172742E202854656D70A5
:103B800065726174757265206973207265736574FE
:103B90002E205365742069742061667465722072EA
:103BA000657374617274696E6729004E6F204C6989
:103BB0006E65204E756D626572207769746820634A
:103BC0006865636B73756D2C204C617374204C6950
:103BD0006E653A20004E6F20436865636B73756DA8
:103BE0002077697468206C696E65206E756D6265FA
:103BF000722C204C617374204C696E653A20002051
:103C0000746F6F206C6F6E6720657874727573695E
:103C10006F6E2070726576656E746564004C696EB7
:103C200065204E756D626572206973206E6F742019
:103C30004C617374204C696E65204E756D626572BF
:103C40002B312C204C617374204C696E653A200036
:103C50005072696E7465722068616C7465642E20A0
:103C60006B696C6C28292063616C6C656421002091
:103C7000636F6C6420657874727573696F6E207001
:103C8000726576656E74656400636865636B7375F1
:103C90006D206D69736D617463682C204C61737461
:103CA000204C696E653A200043485942413A00452C
:103CB00052524F523A00456E642066696C65206C22
:103CC000697374006F70656E0054524947474552DE
:103CD000454400656E6473746F7073206869743A4C
:103CE0002000536C6565702E2E2E005679706E6F15
:103CF0007574206D6F746F72790044697361626CC2
:103D000065207374657070657273004E65706C61C8
:103D1000746E6520686F646E6F7479206E61737461
:103D20006176656E692E204275646520706F757AC4
:103D300069746F20767963686F7A69205049442CE2
:103D400020457374657073206174642E004F6C6439
:103D50002073657474696E677320666F756E642E68
:103D60002044656661756C74205049442C2045736D
:103D700074657073206574632E2077696C6C2062A3
:103D800065207365742E00446174756D3A0044615A
:103D900074653A00506F757A6520616B7475616C5B
:103DA0006E690043757272656E74001B5B324A5017
:103DB0004F5A4F523A1B5B313B3048437261736834
:103DC00020646574656B63651B5B323B30486465DA
:103DD000616B7469766F76616E612076651B5B330B
:103DE0003B3048537465616C7468206D6F64750076
:103DF0001B5B324A5741524E494E473A1B5B313B9F
:103E00003048437261736820646574656374696FD8
:103E10006E1B5B323B304864697361626C65642081
:103E2000696E1B5B333B3048537465616C7468206A
:103E30006D6F6465001B5B324A4372617368206476
:103E40006574656B6365206D757A651B5B313B300E
:103E500048627974207A61706E75746120706F7534
:103E60007A6520761B5B323B30484E6F726D616C19
:103E7000206D6F6475001B5B324A4372617368206A
:103E8000646574656374696F6E2063616E1B5B317A
:103E90003B30486265207475726E6564206F6E20D9
:103EA0006F6E6C7920696E1B5B323B30484E6F72CF
:103EB0006D616C206D6F646500446574656B6F7631
:103EC000616E206E6172617A2E00437261736820A8
:103ED00064657465637465642E0043726173682061
:103EE0006465742E20205B7A61705D00437261739B
:103EF00068206465742E2020205B6F6E5D00437225
:103F0000617368206465742E20205B7679705D0093
:103F10004372617368206465742E20205B6F66664F
:103F20005D004372617368206465742E20205B4ECF
:103F30002F415D0020436F756E7420583A20005663
:103F4000796D656E61206F6B3F004368616E6765D8
:103F50006420636F72726563746C793F005A6368A2
:103F60006C6164697400436F6F6C646F776E0050AE
:103F7000726F2075737065736E6F75206B616C69FD
:103F80006272616369206F63697374657465207020
:103F9000726F73696D207469736B6F766F752074BF
:103FA0007279736B752E20506F747672647465200D
:103FB000746C616369746B656D2E00506C65617320
:103FC0006520636C65616E20746865206E6F7A7A17
:103FD0006C6520666F722063616C696272617469DE
:103FE0006F6E2E20436C69636B207768656E20646A
:103FF0006F6E652E00204C6173742055706461747F
:1040000065643A200056796265727465206578743B
:1040100072756465723A0043686F6F7365206578E6
:104020007472756465723A0050726F73696D206FB7
:10403000746576726574652069646C6572206120B0
:104040006D616E75616C6E65206F64737472616E04
:1040500074652066696C616D656E742E00506C65C8
:10406000617365206F70656E2069646C6572206194
:104070006E642072656D6F76652066696C616D6532
:104080006E74206D616E75616C6C792E005A6D6571
:104090006E612075737065736E6121004368616E97
:1040A0006765207375636365737321005A6D656E70
:1040B0006974206578747275646572004368616E16
:1040C0006765206578747275646572005661726FF9
:1040D00076616E693A20646F736C6F206B65207A2D
:1040E0006D656E652074797075207469736B61728B
:1040F0006E792E005761726E696E673A2070726930
:104100006E7465722074797065206368616E67658E
:10411000642E005661726F76616E693A20646F7327
:104120006C6F206B65207A6D656E65207479707593
:10413000206D6F74686572626F617264752E0057CE
:1041400061726E696E673A206D6F74686572626F36
:104150006172642074797065206368616E6765645C
:104160002E005661726F76616E693A20646F736CCF
:104170006F206B65207A6D656E652074797075208F
:104180007469736B61726E792061206D6F746865FC
:1041900072626F617264752E005761726E696E672C
:1041A0003A20626F7468207072696E746572207450
:1041B00079706520616E64206D6F74686572626FDE
:1041C0006172642074797065206368616E676564EC
:1041D0002E005469736B207A205344005072696E2C
:1041E000742066726F6D205344005465706C6F7458
:1041F0002E206B616C6962726163650054656D703D
:104200002E2063616C6962726174696F6E004B612C
:104210006C696272756A69205A0043616C696272E6
:104220006174696E67205A005A6B616C6962726FC3
:104230007661740043616C696272617465005265F5
:104240007365742058595A206B616C6962722E0034
:1042500052657365742058595A2063616C696272A3
:104260002E004B616C6962726163652058595A0077
:1042700043616C6962726174652058595A0020422A
:10428000726F776E206F757420526573657400428B
:104290006567696E2066696C65206C697374004B94
:1042A000616C6962726163652058595A206E65704D
:1042B0007265736E612E204C65767920707265642C
:1042C0006E6920626F64206D6F6320767072656422
:1042D000752E0058595A2063616C69627261746965
:1042E0006F6E20636F6D70726F6D697365642E20E1
:1042F0004C6566742066726F6E742063616C6962CF
:10430000726174696F6E20706F696E74206E6F7465
:1043100020726561636861626C652E004B616C6937
:1043200062726163652058595A206E6570726573B8
:104330006E612E20507265646E69206B616C6962DB
:104340007261636E6920626F6479206D6F6320769D
:1043500070726564752E0058595A2063616C6962E9
:10436000726174696F6E20636F6D70726F6D6973C7
:1043700065642E2046726F6E742063616C69627290
:104380006174696F6E20706F696E7473206E6F74E4
:1043900020726561636861626C652E004B616C69B7
:1043A00062726163652058595A207620706F72617D
:1043B000646B752E20582F59206F7379206D6972A8
:1043C0006E65207A6B6F73656E652E20446F627226
:1043D00061207072616365210058595A2063616CD5
:1043E0006962726174696F6E20616C6C20726967BA
:1043F00068742E20582F592061786573206172658A
:1044000020736C696768746C7920736B6577656479
:104410002E20476F6F64206A6F6221004B616C69C8
:1044200062726163652058595A207620706F7261FC
:10443000646B752E205A6B6F73656E6920627564AC
:1044400065206175746F6D617469636B792076792D
:10445000726F766E616E6F20707269207469736B13
:10446000752E0058595A2063616C696272617469D3
:104470006F6E20616C6C2072696768742E20536BBC
:1044800065772077696C6C20626520636F72726556
:1044900063746564206175746F6D61746963616CC8
:1044A0006C792E004B616C696272616365205859AA
:1044B0005A2073656C68616C612E204B616C696277
:1044C0007261636E6920626F6420706F646C6F7AD2
:1044D0006B79206E656E616C657A656E2E00585939
:1044E0005A2063616C6962726174696F6E206661E3
:1044F000696C65642E204265642063616C69627238
:104500006174696F6E20706F696E742077617320BB
:104510006E6F7420666F756E642E004B616C6962FD
:10452000726163652058595A207620706F726164F9
:104530006B752E20582F59206F7379206A736F7511
:10454000206B6F6C6D652E2047726174756C756A97
:1045500069210058595A2063616C696272617469FB
:104560006F6E206F6B2E20582F5920617865732055
:104570006172652070657270656E646963756C61E7
:10458000722E20436F6E67726174756C6174696F0F
:104590006E7321004B616C696272616365205859CA
:1045A0005A2073656C68616C612E204E61686C6581
:1045B000646E65746520646F206D616E75616C75E5
:1045C0002E0058595A2063616C6962726174696F78
:1045D0006E206661696C65642E20506C6561736540
:1045E00020636F6E73756C7420746865206D616EE6
:1045F00075616C2E004B616C696272616365205855
:10460000595A2073656C68616C612E204C6576790F
:1046100020707265646E6920626F64206D6F632024
:104620007670726564752E2053726F766E656A744B
:1046300065207469736B61726E752E0058595A202B
:1046400063616C6962726174696F6E206661696C26
:1046500065642E204C6566742066726F6E742063EC
:10466000616C6962726174696F6E20706F696E74DB
:10467000206E6F7420726561636861626C652E00E4
:104680004B616C6962726163652058595A20736589
:104690006C68616C612E20507265646E69206B617C
:1046A0006C69627261636E6920626F6479206D6FFC
:1046B00063207670726564752E2053726F766E6516
:1046C0006A7465207469736B61726E752E00585937
:1046D0005A2063616C6962726174696F6E206661F1
:1046E000696C65642E2046726F6E742063616C691C
:1046F00062726174696F6E20706F696E7473206E80
:104700006F7420726561636861626C652E004B6135
:104710006C696272616365205A2073656C68616CB4
:10472000612E2053656E736F72206A65206F64700E
:104730006F6A656E79206E65626F20707265727542
:1047400073656E79206B6162656C2E2043656B61C9
:104750006D206E612072657365742E004265642061
:104760006C6576656C696E67206661696C65642E40
:104770002053656E736F7220646973636F6E6E652C
:1047800063746564206F72206361626C652062727D
:104790006F6B656E2E2057616974696E6720666F56
:1047A000722072657365742E004B616C6962726170
:1047B0006365205A2073656C68616C612E205365B7
:1047C0006E736F72206E657365706E756C2E205AF5
:1047D0006E6563697374656E6120747279736B6161
:1047E0003F2043656B616D206E6120726573657457
:1047F0002E00426564206C6576656C696E67206684
:1048000061696C65642E2053656E736F72206469F4
:10481000646E7420747269676765722E20446562E5
:10482000726973206F6E206E6F7A7A6C653F2057C5
:10483000616974696E6720666F7220726573657452
:104840002E004B616C696272616365205A2073654A
:104850006C68616C612E2053656E736F7220736596
:10486000706E756C207072696C6973207679736FE5
:104870006B6F2E2043656B616D206E6120726573D6
:1048800065742E00426564206C6576656C696E67A0
:10489000206661696C65642E2053656E736F7220AB
:1048A00074726967676572656420746F6F206869E8
:1048B00067682E2057616974696E6720666F722081
:1048C00072657365742E005A6168726976616E69EB
:1048D00020707265727573656E6F2062657A70659F
:1048E000636E6F73746E696D206361736F7661635D
:1048F000656D2E0048656174696E67206469736137
:10490000626C6564206279207361666574792074D5
:10491000696D65722E005A6168726976616E6920F0
:10492000626564004265642048656174696E670071
:10493000426564204F4B2E0042656420646F6E65B3
:104940000056707261766F205B756D5D005269670D
:10495000687420736964655B756D5D00526573658D
:104960007400567A61647520205B756D5D00526538
:1049700061722073696465205B756D5D004B6F72B9
:10498000656B636520706F646C6F7A6B790042654C
:1049900064206C6576656C20636F72726563740069
:1049A000566C65766F20205B756D5D004C65667496
:1049B0002073696465205B756D5D00567072656477
:1049C00075205B756D5D0046726F6E74207369644F
:1049D000655B756D5D00426564004E656E69207AA9
:1049E0006B616C6962726F76616E6120767A646168
:1049F0006C656E6F737420747279736B79206F6459
:104A0000207469736B6F766520706F646C6F7A6B5E
:104A1000792E20506F73747570756A74652070728A
:104A20006F73696D20706F646C65206D616E756168
:104A30006C752C206B617069746F6C61205A6163B6
:104A4000696E616D652C206F647374617665632097
:104A50004E6173746176656E69207072766E69203E
:104A60007672737476792E0044697374616E63652F
:104A7000206265747765656E20746970206F6620AA
:104A8000746865206E6F7A7A6C6520616E6420743C
:104A9000686520626564207375726661636520686D
:104AA0006173206E6F74206265656E20736574207B
:104AB0007965742E20506C6561736520666F6C6C2F
:104AC0006F7720746865206D616E75616C2C206352
:104AD00068617074657220466972737420737465BE
:104AE00070732C2073656374696F6E2046697273EE
:104AF00074206C617965722063616C6962726174A3
:104B0000696F6E2E00446F6C6164656E69206F730F
:104B100079205A004C6976652061646A7573742047
:104B20005A0041646A757374696E67205A00417552
:104B3000746F20686F6D6500207C20417574686F0C
:104B4000723A200056736500416C6C0041153315B4
:104B500053155B1563156C15741591157C15AA1505
:104B6000A615AE15B615CF15BE15FA15E0155016DB
:104B70001816EF168E16DB173017D2188F18781903
:104B80001F192B1ABF19D61A8A1A6A1B271BBB1B9F
:104B9000A71B291CCF1BC01C711C2E1D0A1D631DC9
:104BA0004E1D861D771DD11DA31D5C1EFF1DBC1E45
:104BB000C31EDD1ED31E041FE91E4C1F241F811FB0
:104BC0006F1F921FB71FA31FEA1FC91F1B200A20B8
:104BD0003E202D206120502084207320A720962085
:104BE000C320B720E020CE20F3200C210621112184
:104BF0002321352197217C21C821B621EC21DA21FE
:104C00007322FE21F722E22214230C2328232023DF
:104C10003E2330234923532383236723B0239E233A
:104C2000D423C223F423E6231924072438242A2476
:104C30005324462471246424A7247E24DB24D22414
:104C4000F324E124172505253B2529255D254D2540
:104C50006B258A257B25A8259725C625B725E5251B
:104C6000D3250026F625182609262F2625263726A1
:104C7000582649267226632681269D268E26AB2637
:104C8000B126D526C326EE26E6260127F7262027BD
:104C90000E27412730275C274A277A276E279D2732
:104CA0008827AE27BF27CF27D827F527E027182842
:104CB00006283C282A2860284E2884287228A728FD
:104CC0009628CB28B928EF28DD2813290129252982
:104CD0003C2932294C2948295129632975298829D9
:104CE0009E299029AB29BD29D129EF29E129FD2948
:104CF0000A2A182A262A3C2A472A642A5D2A7C2A5C
:104D00006B2A9A2A8B2AB42AA92AC12AF32ACA2AE8
:104D1000422B1B2B792B642BB02B8E2BE62BD52B08
:104D2000092CF82B262C1B2C422C322C5D2C4F2CC2
:104D30009C2C6B2CFA2CC52C3A2D252D602D4D2D3D
:104D4000892D752DA72D9D2DAF2DC62DB72DF82D95
:104D5000D22D312E182E492E882E602EBD2EAD2E2E
:104D6000DF2ECB2E052FF32E252F172F452F352F76
:104D7000D82F512F6E30713075308D307E309F308E
:104D80009830B930A630DE30CD30F330F0300B3112
:104D9000F63036311B31613156317331683185312E
:104DA0007A318C31A2319531AC31C531BE31D63139
:104DB000CE31ED31E3310532F9311632113245325F
:104DC0001C32853275329432B632A732BB32D232BF
:104DD000E93200333033193346335D3374339E3355
:104DE0008B33BD33AB33DF33CD330134EF33233477
:104DF0001134433433345C3451347834653497346B
:104E00008934AB34A534BE34B134D634CE34DE3438
:104E1000F334E7340C35FF341835323526354D354B
:104E200040356B355E35853577359D359335A53500
:104E3000F235B435A53632361A37133732371F37C5
:104E40004B374637703751379037A237D537B5379C
:104E50004838F737AA389938EE38BA3854392039F3
:104E6000BA398639203AEC39633A523A823A733A7F
:104E70009E3A8C3AC23AB03AD43ADF3AE63AF03A3D
:104E8000FB3A063B113B1C3B253B353BAB3BD53B43
:104E9000FF3B1D3C503C6F3C893CAF3CA83CB63CC2
:104EA000C43CC93CD33CE23CFA3CEB3C4D3D0B3DA1
:104EB0008E3D873DA33D943DF03DAB3D763E353E76
:104EC000CA3EB93EEC3EDA3E103FFE3E223F343F42
:104ED0004A3F3F3F663F5D3FBB3F6F3FF53F174057
:104EE00005405D4028409C408D40BC40AC40F440B3
:104EF000CC403F41134199416241DC41D241FC41E8
:104F0000EA411A420E423442284250423E42704226
:104F100062427E428F42D3429F4257431C43D94351
:104F20009C4363441C44DE44A44453451B45C24592
:104F300094453C46F545CE4680465C470E47F247D1
:104F4000A94784484248F448C74824491649384983
:104F500030494D4941495C496E4962498E497D4914
:104F6000AC49A049C749BB49D649684ADA49144BFC
:104F7000054B224B2E4B384B484B444B45787265C2
:104F80006D65207370616E206F6620746865205AAD
:104F90002076616C7565732100203C2000574152DA
:104FA0004E494E473A2046726F6E7420706F696E9C
:104FB00074206E6F7420726561636861626C652E27
:104FC000205920636F6F7264696E6174653A0000E6
:104FD000497465726174696F6E3A20000000404147
:104FE000000000400000E442000000400000574381
:104FF00000000040000057430000C4420000E442AB
:105000000000C442000040410000C4420000404192
:10501000000042430000E4420000424300005743C6
:1050200000004243000040410000C04000005C43DB
:105030000000C04000005C430000464300004041C7
:10504000000046435A00205A3A00590020593A00BD
:10505000580020583A0024F4D43050C38E20C2A205
:105060004017828B7011127A910D816CD90AA86158
:10507000E108C7586607615143061E4B5D05C145EF
:10508000A7041A411104093D9803713931034036D0
:10509000DB0265339102D4305402802E1D02632C52
:1050A000EE01752AC501B028A001102781018F25C6
:1050B00064012B244B01E0223401AC211F018D201F
:1050C0000D01801FFC00841EED00971DDF00B81C41
:1050D000D200E61BC600201BBC00641AB200B21945
:1050E000A8000A19A0006A189900D117910040176A
:1050F0008B00B516840031167E00B31579003A1581
:105100007300C7146F0058146A00EE13660088130A
:10511000630025135E00C7125B006C125700151266
:105120005400C111510070114F0021114B00D610D5
:1051300049008D1047004610440002104200C00F85
:105140004000800F3E00420F3C00060F3B00CB0E9C
:105150003800930E37005C0E3500270E3400F30D37
:105160003200C10D3100900D3000600D2E00320D67
:105170002D00050D2C00D90C2B00AE0C2900850C40
:1051800029005C0C2700350C27000E0C2600E80BCC
:105190002400C40B2400A00B23007D0B23005A0B1A
:1051A0002100390B2100180B2000F80A1F00D90A32
:1051B0001E00BB0A1E009D0A1D00800A1D00630A16
:1051C0001C00470A1B002C0A1B00110A1A00F709D1
:1051D0001A00DD091900C4091900AB091900920968
:1051E00017007B091800630917004C0916003609DF
:1051F0001600200916000A091500F5081500E00838
:105200001400CC081400B8081400A4081400900876
:1052100013007D0812006B0813005808120046089E
:1052200012003408110023081100120811000108AF
:105230001100F0071000E0071000D0071000C007B1
:105240001000B0070F00A107100091070E008307A0
:105250000F0074070F0065070E0057070E0049077F
:105260000E003B070D002E070E0020070D00130750
:105270000D0006070D00F9060C00ED060D00E00616
:105280000C00D4060C00C8060C00BC060C00B006CE
:105290000C00A4060B0099060C008D060B0082067C
:1052A0000B0077060B006C060B0061060A00570620
:1052B0000B004C060A0042060A0038060A002E06B9
:1052C0000A0024060A001A060A001006090007064A
:1052D0000A00FD050900F4050900EB050900E205D7
:1052E0000900D9050900D0050900C7050900BE0558
:1052F0000900B5050800AD050800A50509009C05D5
:105300000800940508008C050800840508007C0549
:105310000800740508006C050700650508005D05B8
:105320000700560508004E05070047050700400521
:10533000080038050700310507002A050700230586
:1053400007001C050600160507000F0507000805E5
:10535000060002050700FB040600F5040700EE0442
:105360000600E8040600E2040700DB040600D5049A
:105370000600CF040600C9040600C3040600BD04ED
:105380000600B7040600B1040500AC040600A6043C
:105390000600A00405009B04060095040500900487
:1053A00006008A04050085040500800406007A04CE
:1053B000050075040500700405006B040500660413
:1053C0000500610405005C04050057040500520453
:1053D00005004D04050048040500430405003E0493
:1053E00004003A04050035040500300404002C04D0
:1053F000050027040400230405001E0404001A0409
:10540000040016040500110404000D04040009043E
:1054100005000404040000040400FC030400F80375
:105420000400F4030400F0030400EC030400E803A8
:105430000400E4030400E0030400DC030400D803D8
:105440000400D4030400D0030400CC030400C80308
:105450000300C503030024F404D9201BC40C5C0E14
:105460009804C4095F0265077101F405F900FB04A3
:10547000B30048048700C1036900580355000303C3
:105480004500BE023A008402310053022A0029027C
:10549000250004022000E4011C00C8011900AF012E
:1054A00017009801140084011300710110006101BC
:1054B000100051010E0043010D0036010B002B01BD
:1054C0000B0020010B00150109000C01090003016C
:1054D0000800FB000800F3000800EB000700E400F0
:1054E0000600DE000600D8000600D2000600CC0050
:1054F0000500C7000500C2000500BD000400B9009A
:105500000400B5000400B1000400AD000400A900CF
:105510000400A5000300A20003009F0004009B00FC
:105520000300980003009500020093000300900020
:1055300003008D0002008B0003008800020086003B
:10554000020084000300810002007F0002007D0051
:1055500002007B0002007900020077000100760063
:1055600002007400020072000100710002006F006E
:1055700002006D0001006C0002006A000100690079
:105580000200670001006600010065000100640080
:1055900002006200010061000100600001005F0084
:1055A00002005D0001005C0001005B0001005A0088
:1055B0000100590001005800010057000100560089
:1055C0000100550001005400010053000000530089
:1055D00001005200010051000100500001004F0085
:1055E00001004E0000004E0001004D0001004C0083
:1055F00001004B0000004B0001004A00010049007F
:10560000010048000000480001004700010046007A
:105610000000460001004500000045000100440074
:10562000010043000000430001004200000042006E
:1056300001004100000041000100400001003F0066
:1056400000003F0001003E0000003E0001003D0060
:1056500000003D0001003C0000003C0000003C0058
:1056600001003B0000003B0001003A0000003A004E
:105670000100390000003900010038000000380046
:10568000000038000100370000003700010036003C
:105690000000360000003600010035000000350033
:1056A0000000350001003400000034000000340028
:1056B000010033000000330000003300010032001D
:1056C0000000320000003200010031000000310013
:1056D0000000310001003000000030000000300008
:1056E00001002F0000002F0000002F0000002F00FD
:1056F00001002E0000002E0000002E0001002D00F1
:1057000000002D0000002D0000002D0001002C00E5
:1057100000002C0000002C0000002C0001002B00D9
:1057200000002B0000002B0000002B0001002A00CD
:1057300000002A0000002A0000002A0001002900C1
:1057400000002900000029000000290000002900B5
:1057500001002800000028000000280000002800A8
:10576000000028000100270000002700000027009B
:10577000000027000000270001002600000026008E
:105780000000260000002600000026000100250081
:105790000000250000002500000025000000250075
:1057A0000000250001002400000024000000240067
:1057B000000024000000240001002300000023005A
:1057C000000023000000230000002300000023004D
:1057D000000023000100220000002200000022003F
:1057E0000000220000002200000022000100210031
:1057F0000000210000002100000021000000210025
:105800000000210000002100010020000000200015
:105810000000200000002000000020000000200008
:10582000000020000000200001001F0000001F00F9
:1058300000001F0000001F0000001F0000001F00EC
:1058400000001F0001001E0000001E0000001E00DE
:1058500000001E0000004572723A204D494E54452A
:105860004D50204245440054656D706572617475F9
:105870007265206865617465642062656420737771
:10588000697463686564206F66662E204D494E54C6
:10589000454D502074726967676572656420210008
:1058A0004572723A204D415854454D50204245446E
:1058B0000054656D7065726174757265206865610C
:1058C00074656420626564207377697463686564D5
:1058D000206F66662E204D415854454D50207472FD
:1058E000696767657265642021004572723A204DD0
:1058F000494E54454D50003A2045787472756465A0
:1059000072207377697463686564206F66662E2001
:105910004D494E54454D50207472696767657265F4
:10592000642021004572723A204D415854454D5033
:10593000003A2045787472756465722073776974D3
:1059400063686564206F66662E204D415854454D4E
:105950005020747269676765726564202100204871
:105960004F54454E4420544845524D414C205255C9
:105970004E41574159002048454154424544205426
:105980004845524D414C2052554E415741590054C3
:105990004845524D414C2052554E415741590042C5
:1059A000454420544845524D414C2052554E415794
:1059B00041590020544845524D414C2052554E41CA
:1059C0005741592028205052454845415420484FBE
:1059D00054454E44290020544845524D414C2052D4
:1059E000554E415741592028205052454845415471
:1059F00020484541544245442900505245484541BC
:105A000054204552524F520042454420505245487E
:105A1000454154204552524F52004572723A20502F
:105A200052494E542046414E204552524F5200504A
:105A300072696E742066616E20737065656420699A
:105A400073206C6F776572207468656E206578705E
:105A50006563746564004572723A20455854522E4D
:105A60002046414E204552524F520045787472757F
:105A70006465722066616E20737065656420697369
:105A8000206C6F776572207468656E20657870652C
:105A900063746564002F2F20616374696F6E3A70C0
:105AA0006175736500504944204175746F74756E5B
:105AB000652066696E69736865642120507574207D
:105AC000746865206C617374204B702C204B6920C6
:105AD000616E64204B6420636F6E7374616E7473C7
